{
  "transactions": [
    {
      "hash": "0xdd6651cdc8ebacff98628591359ff4f0762275df2124a3234446279ffb125c13",
      "transactionType": "CALL",
      "contractName": null,
      "contractAddress": "0xb99cc53e8db7018f557606c2a5b066527bf96b26",
      "function": "setExecutorOperatorSetTaskConfig((address,uint32),(address,uint96,address,uint8,address,(uint8,bytes),bytes))",
      "arguments": [
        "(0x70997970C51812dc3A010C7d01b50e0d17dc79C8, 1)",
        "(0x56186c1e64ca8043DEF78d06Aff222212ea5df71, 120, 0x0000000000000000000000000000000000000000, 1, 0x0000000000000000000000000000000000000000, (1, 0x0000000000000000000000000000000000000000000000000000000000002710), 0x)"
      ],
      "transaction": {
        "from": "0x70997970c51812dc3a010c7d01b50e0d17dc79c8",
        "to": "0xb99cc53e8db7018f557606c2a5b066527bf96b26",
        "gas": "0x460a5",
        "value": "0x0",
        "input": "0xf741e81a00000000000000000000000070997970c51812dc3a010c7d01b50e0d17dc79c80000000000000000000000000000000000000000000000000000000000000001000000000000000000000000000000000000000000000000000000000000006000000000000000000000000056186c1e64ca8043def78d06aff222212ea5df71000000000000000000000000000000000000000000000000000000000000007800000000000000000000000000000000000000000000000000000000000000000000000000000000000000000000000000000000000000000000000000000001000000000000000000000000000000000000000000000000000000000000000000000000000000000000000000000000000000000000000000000000000000e0000000000000000000000000000000000000000000000000000000000000016000000000000000000000000000000000000000000000000000000000000000010000000000000000000000000000000000000000000000000000000000000040000000000000000000000000000000000000000000000000000000000000002000000000000000000000000000000000000000000000000000000000000027100000000000000000000000000000000000000000000000000000000000000000",
        "nonce": "0x874",
        "chainId": "0x7a6a"
      },
      "additionalContracts": [],
      "isFixedGasLimit": false
    }
  ],
  "receipts": [
    {
      "status": "0x1",
      "cumulativeGasUsed": "0x2fe41",
      "logs": [
        {
          "address": "0xb99cc53e8db7018f557606c2a5b066527bf96b26",
          "topics": [
            "0x7cd76abd4025a20959a1b20f7c1536e3894a0735cd8de0215dde803ddea7f2d2",
            "0x00000000000000000000000070997970c51812dc3a010c7d01b50e0d17dc79c8",
            "0x00000000000000000000000070997970c51812dc3a010c7d01b50e0d17dc79c8",
            "0x0000000000000000000000000000000000000000000000000000000000000001"
          ],
          "data": "0x000000000000000000000000000000000000000000000000000000000000002000000000000000000000000056186c1e64ca8043def78d06aff222212ea5df71000000000000000000000000000000000000000000000000000000000000007800000000000000000000000000000000000000000000000000000000000000000000000000000000000000000000000000000000000000000000000000000001000000000000000000000000000000000000000000000000000000000000000000000000000000000000000000000000000000000000000000000000000000e0000000000000000000000000000000000000000000000000000000000000016000000000000000000000000000000000000000000000000000000000000000010000000000000000000000000000000000000000000000000000000000000040000000000000000000000000000000000000000000000000000000000000002000000000000000000000000000000000000000000000000000000000000027100000000000000000000000000000000000000000000000000000000000000000",
          "blockHash": "0xcedea2505435b7d9504b82befb88a8159c10c9e7ebf0c88f2cc2c45814ab3693",
          "blockNumber": "0x1df40d8",
          "blockTimestamp": "0x68d1e123",
          "transactionHash": "0xdd6651cdc8ebacff98628591359ff4f0762275df2124a3234446279ffb125c13",
          "transactionIndex": "0x0",
          "logIndex": "0x0",
          "removed": false
        },
        {
          "address": "0xb99cc53e8db7018f557606c2a5b066527bf96b26",
          "topics": [
            "0x48b63f21a1eb9dd6880e196de6d7db3fbd0c282b74f1298dcb4cf53472298f39",
            "0x00000000000000000000000070997970c51812dc3a010c7d01b50e0d17dc79c8",
            "0x00000000000000000000000070997970c51812dc3a010c7d01b50e0d17dc79c8",
            "0x0000000000000000000000000000000000000000000000000000000000000001"
          ],
          "data": "0x0000000000000000000000000000000000000000000000000000000000000001",
          "blockHash": "0xcedea2505435b7d9504b82befb88a8159c10c9e7ebf0c88f2cc2c45814ab3693",
          "blockNumber": "0x1df40d8",
          "blockTimestamp": "0x68d1e123",
          "transactionHash": "0xdd6651cdc8ebacff98628591359ff4f0762275df2124a3234446279ffb125c13",
          "transactionIndex": "0x0",
          "logIndex": "0x1",
          "removed": false
        }
      ],
      "logsBloom": "0x00000000000000000002000000000000000000000000000000000000000000000000000000000000000000000000000020000400000000000000000000040000000000000000000000000000000000040000000000040000000000000000000000000900040000000000000000000000000000000000000000000000000000000000000000000000000000000000000000000000000000000000000000000000000000000000000000000000000000000000000000000000000000000000000000000000000000000000000000000000000000000000200000000000000040000200000000000000000000800000000021000000000000000000000000000000",
      "type": "0x2",
      "transactionHash": "0xdd6651cdc8ebacff98628591359ff4f0762275df2124a3234446279ffb125c13",
      "transactionIndex": "0x0",
      "blockHash": "0xcedea2505435b7d9504b82befb88a8159c10c9e7ebf0c88f2cc2c45814ab3693",
      "blockNumber": "0x1df40d8",
      "gasUsed": "0x2fe41",
      "effectiveGasPrice": "0x3b9aca00",
      "blobGasPrice": "0x1",
      "from": "0x70997970c51812dc3a010c7d01b50e0d17dc79c8",
      "to": "0xb99cc53e8db7018f557606c2a5b066527bf96b26",
      "contractAddress": null
    }
  ],
  "libraries": [],
  "pending": [],
  "returns": {},
  "timestamp": 1763562072,
  "chain": 31338,
  "commit": "bc17cc4"
}