{
  "transactions": [
    {
      "hash": "0x481f65f305f2490065091b7ef1d11ad11637032cb4ed12db9182fe4a680ee807",
      "transactionType": "CALL",
      "contractName": null,
      "contractAddress": "0xb99cc53e8db7018f557606c2a5b066527bf96b26",
      "function": "setExecutorOperatorSetTaskConfig((address,uint32),(address,uint96,address,uint8,address,(uint8,bytes),bytes))",
      "arguments": [
        "(0x70997970C51812dc3A010C7d01b50e0d17dc79C8, 1)",
        "(0xE527DDaC2592FAa45884a0B78E4D377a5D3dF8cc, 300, 0x0000000000000000000000000000000000000000, 1, 0x0000000000000000000000000000000000000000, (1, 0x0000000000000000000000000000000000000000000000000000000000001a0b), 0x)"
      ],
      "transaction": {
        "from": "0x70997970c51812dc3a010c7d01b50e0d17dc79c8",
        "to": "0xb99cc53e8db7018f557606c2a5b066527bf96b26",
        "gas": "0x42272",
        "value": "0x0",
        "input": "0xf741e81a00000000000000000000000070997970c51812dc3a010c7d01b50e0d17dc79c800000000000000000000000000000000000000000000000000000000000000010000000000000000000000000000000000000000000000000000000000000060000000000000000000000000e527ddac2592faa45884a0b78e4d377a5d3df8cc000000000000000000000000000000000000000000000000000000000000012c00000000000000000000000000000000000000000000000000000000000000000000000000000000000000000000000000000000000000000000000000000001000000000000000000000000000000000000000000000000000000000000000000000000000000000000000000000000000000000000000000000000000000e000000000000000000000000000000000000000000000000000000000000001600000000000000000000000000000000000000000000000000000000000000001000000000000000000000000000000000000000000000000000000000000004000000000000000000000000000000000000000000000000000000000000000200000000000000000000000000000000000000000000000000000000000001a0b0000000000000000000000000000000000000000000000000000000000000000",
        "nonce": "0x87f",
        "chainId": "0x7a6a"
      },
      "additionalContracts": [],
      "isFixedGasLimit": false
    }
  ],
  "receipts": [
    {
      "status": "0x1",
      "cumulativeGasUsed": "0x2fe4d",
      "logs": [
        {
          "address": "0xb99cc53e8db7018f557606c2a5b066527bf96b26",
          "topics": [
            "0x7cd76abd4025a20959a1b20f7c1536e3894a0735cd8de0215dde803ddea7f2d2",
            "0x00000000000000000000000070997970c51812dc3a010c7d01b50e0d17dc79c8",
            "0x00000000000000000000000070997970c51812dc3a010c7d01b50e0d17dc79c8",
            "0x0000000000000000000000000000000000000000000000000000000000000001"
          ],
          "data": "0x0000000000000000000000000000000000000000000000000000000000000020000000000000000000000000e527ddac2592faa45884a0b78e4d377a5d3df8cc000000000000000000000000000000000000000000000000000000000000012c00000000000000000000000000000000000000000000000000000000000000000000000000000000000000000000000000000000000000000000000000000001000000000000000000000000000000000000000000000000000000000000000000000000000000000000000000000000000000000000000000000000000000e000000000000000000000000000000000000000000000000000000000000001600000000000000000000000000000000000000000000000000000000000000001000000000000000000000000000000000000000000000000000000000000004000000000000000000000000000000000000000000000000000000000000000200000000000000000000000000000000000000000000000000000000000001a0b0000000000000000000000000000000000000000000000000000000000000000",
          "blockHash": "0x622182f376cc4b951a8c7fabe35e90e4052f5d8170b3216c90bc957a44407801",
          "blockNumber": "0x1e84893",
          "blockTimestamp": "0x68ff2062",
          "transactionHash": "0x481f65f305f2490065091b7ef1d11ad11637032cb4ed12db9182fe4a680ee807",
          "transactionIndex": "0x0",
          "logIndex": "0x0",
          "removed": false
        },
        {
          "address": "0xb99cc53e8db7018f557606c2a5b066527bf96b26",
          "topics": [
            "0x48b63f21a1eb9dd6880e196de6d7db3fbd0c282b74f1298dcb4cf53472298f39",
            "0x00000000000000000000000070997970c51812dc3a010c7d01b50e0d17dc79c8",
            "0x00000000000000000000000070997970c51812dc3a010c7d01b50e0d17dc79c8",
            "0x0000000000000000000000000000000000000000000000000000000000000001"
          ],
          "data": "0x0000000000000000000000000000000000000000000000000000000000000001",
          "blockHash": "0x622182f376cc4b951a8c7fabe35e90e4052f5d8170b3216c90bc957a44407801",
          "blockNumber": "0x1e84893",
          "blockTimestamp": "0x68ff2062",
          "transactionHash": "0x481f65f305f2490065091b7ef1d11ad11637032cb4ed12db9182fe4a680ee807",
          "transactionIndex": "0x0",
          "logIndex": "0x1",
          "removed": false
        }
      ],
      "logsBloom": "0x00000000000000000002000000000000000000000000000000000000000000000000000000000000000000000000000020000400000000000000000000040000000000000000000000000000000000040000000000040000000000000000000000000900040000000000000000000000000000000000000000000000000000000000000000000000000000000000000000000000000000000000000000000000000000000000000000000000000000000000000000000000000000000000000000000000000000000000000000000000000000000000200000000000000040000200000000000000000000800000000021000000000000000000000000000000",
      "type": "0x2",
      "transactionHash": "0x481f65f305f2490065091b7ef1d11ad11637032cb4ed12db9182fe4a680ee807",
      "transactionIndex": "0x0",
      "blockHash": "0x622182f376cc4b951a8c7fabe35e90e4052f5d8170b3216c90bc957a44407801",
      "blockNumber": "0x1e84893",
      "gasUsed": "0x2fe4d",
      "effectiveGasPrice": "0x3b9aca00",
      "blobGasPrice": "0x1",
      "from": "0x70997970c51812dc3a010c7d01b50e0d17dc79c8",
      "to": "0xb99cc53e8db7018f557606c2a5b066527bf96b26",
      "contractAddress": null
    }
  ],
  "libraries": [],
  "pending": [],
  "returns": {},
  "timestamp": 1765790850,
  "chain": 31338,
  "commit": "d92619a"
}