{
  "transactions": [
    {
      "hash": "0xd80840d98091dc4c698a2d3102f7a98528f2ee235b410751800d15bdf71d8a1a",
      "transactionType": "CALL",
      "contractName": null,
      "contractAddress": "0xb99cc53e8db7018f557606c2a5b066527bf96b26",
      "function": "createTask((address,(address,uint32),bytes))",
      "arguments": [
        "(0x0000000000000000000000000000000000000000, (0x70997970C51812dc3A010C7d01b50e0d17dc79C8, 1), 0x000000000000000000000000000000000000000000000000000000000000002a000000000000000000000000000000000000000000000000000000000000003a0000000000000000000000000000000000000000000000000000000000000064)"
      ],
      "transaction": {
        "from": "0x3c44cdddb6a900fa2b585dd299e03d12fa4293bc",
        "to": "0xb99cc53e8db7018f557606c2a5b066527bf96b26",
        "gas": "0x7c462",
        "value": "0x0",
        "input": "0x1fb66f5d0000000000000000000000000000000000000000000000000000000000000020000000000000000000000000000000000000000000000000000000000000000000000000000000000000000070997970c51812dc3a010c7d01b50e0d17dc79c8000000000000000000000000000000000000000000000000000000000000000100000000000000000000000000000000000000000000000000000000000000800000000000000000000000000000000000000000000000000000000000000060000000000000000000000000000000000000000000000000000000000000002a000000000000000000000000000000000000000000000000000000000000003a0000000000000000000000000000000000000000000000000000000000000064",
        "nonce": "0x409",
        "chainId": "0x7a6a"
      },
      "additionalContracts": [],
      "isFixedGasLimit": false
    }
  ],
  "receipts": [
    {
      "status": "0x1",
      "cumulativeGasUsed": "0x59f8f",
      "logs": [
        {
          "address": "0xb99cc53e8db7018f557606c2a5b066527bf96b26",
          "topics": [
            "0x33add0b01e02278be5459fbfa3274aee699ec47f4ee7236b59e7a2c8b5000c26",
            "0x0000000000000000000000003c44cdddb6a900fa2b585dd299e03d12fa4293bc",
            "0xcb516aa23f4a21d324e1ea4426414bacac141f46284a90b4041cb4f7af8d7e4e",
            "0x00000000000000000000000070997970c51812dc3a010c7d01b50e0d17dc79c8"
          ],
          "data": "0x00000000000000000000000000000000000000000000000000000000000000010000000000000000000000000000000000000000000000000000000068d1dfe4000000000000000000000000000000000000000000000000000000000000000000000000000000000000000000000000000000000000000000000000000000000000000000000000000000000000000000000000000000000000000068d1e1d400000000000000000000000000000000000000000000000000000000000000c00000000000000000000000000000000000000000000000000000000000000060000000000000000000000000000000000000000000000000000000000000002a000000000000000000000000000000000000000000000000000000000000003a0000000000000000000000000000000000000000000000000000000000000064",
          "blockHash": "0x46da2bd6f00b12fcb2eee9c5234e0375352ee6a3c866087c7cc98bb31bac1065",
          "blockNumber": "0x1df40eb",
          "blockTimestamp": "0x68d1e15c",
          "transactionHash": "0xd80840d98091dc4c698a2d3102f7a98528f2ee235b410751800d15bdf71d8a1a",
          "transactionIndex": "0x0",
          "logIndex": "0x0",
          "removed": false
        }
      ],
      "logsBloom": "0x00000800000000000002000000000000000000000000000000000000100000000000000000000000000000000000000020000000000000000000000000100000000000000000000000000000000000040000000000000000000000000000000000000900000000000000000000000000000800000000000000000000000000000000000000000000000000000000000000000000000000000000000000000000000000000000200000000804000000000000000100008000000000000000000000000000000000000000000000000000000000000000000000000000000000000000000000000000000000000000000001000000000000000000000000000000",
      "type": "0x2",
      "transactionHash": "0xd80840d98091dc4c698a2d3102f7a98528f2ee235b410751800d15bdf71d8a1a",
      "transactionIndex": "0x0",
      "blockHash": "0x46da2bd6f00b12fcb2eee9c5234e0375352ee6a3c866087c7cc98bb31bac1065",
      "blockNumber": "0x1df40eb",
      "gasUsed": "0x59f8f",
      "effectiveGasPrice": "0x1",
      "blobGasPrice": "0x1",
      "from": "0x3c44cdddb6a900fa2b585dd299e03d12fa4293bc",
      "to": "0xb99cc53e8db7018f557606c2a5b066527bf96b26",
      "contractAddress": null
    }
  ],
  "libraries": [],
  "pending": [],
  "returns": {},
  "timestamp": 1764251325,
  "chain": 31338,
  "commit": "8681206"
}