{
  "transactions": [
    {
      "hash": "0x11478ef223d398216dbb8f58d27a05d63c751b037ccb2720a906a317e436062f",
      "transactionType": "CALL",
      "contractName": null,
      "contractAddress": "0xb99cc53e8db7018f557606c2a5b066527bf96b26",
      "function": "createTask((address,(address,uint32),bytes))",
      "arguments": [
        "(0x0000000000000000000000000000000000000000, (0x70997970C51812dc3A010C7d01b50e0d17dc79C8, 1), 0x000000000000000000000000000000000000000000000000000000000000002a000000000000000000000000000000000000000000000000000000000000003a0000000000000000000000000000000000000000000000000000000000000064)"
      ],
      "transaction": {
        "from": "0x3c44cdddb6a900fa2b585dd299e03d12fa4293bc",
        "to": "0xb99cc53e8db7018f557606c2a5b066527bf96b26",
        "gas": "0x7c462",
        "value": "0x0",
        "input": "0x1fb66f5d0000000000000000000000000000000000000000000000000000000000000020000000000000000000000000000000000000000000000000000000000000000000000000000000000000000070997970c51812dc3a010c7d01b50e0d17dc79c8000000000000000000000000000000000000000000000000000000000000000100000000000000000000000000000000000000000000000000000000000000800000000000000000000000000000000000000000000000000000000000000060000000000000000000000000000000000000000000000000000000000000002a000000000000000000000000000000000000000000000000000000000000003a0000000000000000000000000000000000000000000000000000000000000064",
        "nonce": "0x40b",
        "chainId": "0x7a6a"
      },
      "additionalContracts": [],
      "isFixedGasLimit": false
    }
  ],
  "receipts": [
    {
      "status": "0x1",
      "cumulativeGasUsed": "0x59f8f",
      "logs": [
        {
          "address": "0xb99cc53e8db7018f557606c2a5b066527bf96b26",
          "topics": [
            "0x33add0b01e02278be5459fbfa3274aee699ec47f4ee7236b59e7a2c8b5000c26",
            "0x0000000000000000000000003c44cdddb6a900fa2b585dd299e03d12fa4293bc",
            "0x6017175a96b850f83c934e2329f357059e4688e6bff1ea7be49bde53b484746b",
            "0x00000000000000000000000070997970c51812dc3a010c7d01b50e0d17dc79c8"
          ],
          "data": "0x00000000000000000000000000000000000000000000000000000000000000010000000000000000000000000000000000000000000000000000000068d1e1b5000000000000000000000000000000000000000000000000000000000000000000000000000000000000000000000000000000000000000000000000000000000000000000000000000000000000000000000000000000000000000068d1e4dd00000000000000000000000000000000000000000000000000000000000000c00000000000000000000000000000000000000000000000000000000000000060000000000000000000000000000000000000000000000000000000000000002a000000000000000000000000000000000000000000000000000000000000003a0000000000000000000000000000000000000000000000000000000000000064",
          "blockHash": "0x5165e1ccb21dd028f55a57d81bf83244a227f25b0afa2fc87189ca9577b3440d",
          "blockNumber": "0x1df41ee",
          "blockTimestamp": "0x68d1e465",
          "transactionHash": "0x11478ef223d398216dbb8f58d27a05d63c751b037ccb2720a906a317e436062f",
          "transactionIndex": "0x0",
          "logIndex": "0x0",
          "removed": false
        }
      ],
      "logsBloom": "0x00000800000000000002000000020000000000000000000000000000000000000000000000000001000000000000000020000000000000000000000000100000000000000000000000000000000000040000000000000000000000000004000000000900000000000000000000000000000800000000000000000000000000000000000000000000000000000000000000000000000000000000000000000000000000000000200000000004000000000000000000008000000000000000000000000000000000000000000000000000000000000000000000000000000000000000000000000000000000000000000001000000000000000000000000000000",
      "type": "0x2",
      "transactionHash": "0x11478ef223d398216dbb8f58d27a05d63c751b037ccb2720a906a317e436062f",
      "transactionIndex": "0x0",
      "blockHash": "0x5165e1ccb21dd028f55a57d81bf83244a227f25b0afa2fc87189ca9577b3440d",
      "blockNumber": "0x1df41ee",
      "gasUsed": "0x59f8f",
      "effectiveGasPrice": "0x1",
      "blobGasPrice": "0x1",
      "from": "0x3c44cdddb6a900fa2b585dd299e03d12fa4293bc",
      "to": "0xb99cc53e8db7018f557606c2a5b066527bf96b26",
      "contractAddress": null
    }
  ],
  "libraries": [],
  "pending": [],
  "returns": {},
  "timestamp": 1764241882,
  "chain": 31338,
  "commit": "8681206"
}