{
  "transactions": [
    {
      "hash": "0x890b416cba4be5a95cbc6f63021c0f23b6d91c564523529a8c5318b85aee8e6c",
      "transactionType": "CALL",
      "contractName": null,
      "contractAddress": "0xb99cc53e8db7018f557606c2a5b066527bf96b26",
      "function": "createTask((address,(address,uint32),bytes))",
      "arguments": [
        "(0x0000000000000000000000000000000000000000, (0x70997970C51812dc3A010C7d01b50e0d17dc79C8, 1), 0x00000000000000000000000000000000000000000000000000000000000000070000000000000000000000000000000000000000000000000000000000000008000000000000000000000000000000000000000000000000000000000000000f)"
      ],
      "transaction": {
        "from": "0x3c44cdddb6a900fa2b585dd299e03d12fa4293bc",
        "to": "0xb99cc53e8db7018f557606c2a5b066527bf96b26",
        "gas": "0x7c483",
        "value": "0x0",
        "input": "0x1fb66f5d0000000000000000000000000000000000000000000000000000000000000020000000000000000000000000000000000000000000000000000000000000000000000000000000000000000070997970c51812dc3a010c7d01b50e0d17dc79c800000000000000000000000000000000000000000000000000000000000000010000000000000000000000000000000000000000000000000000000000000080000000000000000000000000000000000000000000000000000000000000006000000000000000000000000000000000000000000000000000000000000000070000000000000000000000000000000000000000000000000000000000000008000000000000000000000000000000000000000000000000000000000000000f",
        "nonce": "0x40a",
        "chainId": "0x7a6a"
      },
      "additionalContracts": [],
      "isFixedGasLimit": false
    }
  ],
  "receipts": [
    {
      "status": "0x1",
      "cumulativeGasUsed": "0x59fa6",
      "logs": [
        {
          "address": "0xb99cc53e8db7018f557606c2a5b066527bf96b26",
          "topics": [
            "0x33add0b01e02278be5459fbfa3274aee699ec47f4ee7236b59e7a2c8b5000c26",
            "0x0000000000000000000000003c44cdddb6a900fa2b585dd299e03d12fa4293bc",
            "0xbb2781f7103b6034a2e41ccca4097f027f8f89db9374f2bb3ff4dceace653e6d",
            "0x00000000000000000000000070997970c51812dc3a010c7d01b50e0d17dc79c8"
          ],
          "data": "0x00000000000000000000000000000000000000000000000000000000000000010000000000000000000000000000000000000000000000000000000068d1dfec000000000000000000000000000000000000000000000000000000000000000000000000000000000000000000000000000000000000000000000000000000000000000000000000000000000000000000000000000000000000000068d1e33c00000000000000000000000000000000000000000000000000000000000000c0000000000000000000000000000000000000000000000000000000000000006000000000000000000000000000000000000000000000000000000000000000070000000000000000000000000000000000000000000000000000000000000008000000000000000000000000000000000000000000000000000000000000000f",
          "blockHash": "0xea8b28f0b1bae2ac76488453e88d5f79e37fb115936f12ea8ae4d4e9c593485b",
          "blockNumber": "0x1df4159",
          "blockTimestamp": "0x68d1e2a6",
          "transactionHash": "0x890b416cba4be5a95cbc6f63021c0f23b6d91c564523529a8c5318b85aee8e6c",
          "transactionIndex": "0x0",
          "logIndex": "0x0",
          "removed": false
        }
      ],
      "logsBloom": "0x00000800000000000002000000000000000000000000000000000000000000008000000000000000000000000000000020000000000008000000000000100000000000000000000000000000000000040000000000000000000000000000000000000900000000000000200000000000000800000000000000000000000000000000000000000000000000000000000000000000000000000000000000000000000000000000200000000004000000000000000000008000000000000000000000000000000000000000000000000000000000000000000000000000000000000000000000000000000000000000000001000000000000000000000000000000",
      "type": "0x2",
      "transactionHash": "0x890b416cba4be5a95cbc6f63021c0f23b6d91c564523529a8c5318b85aee8e6c",
      "transactionIndex": "0x0",
      "blockHash": "0xea8b28f0b1bae2ac76488453e88d5f79e37fb115936f12ea8ae4d4e9c593485b",
      "blockNumber": "0x1df4159",
      "gasUsed": "0x59fa6",
      "effectiveGasPrice": "0x1",
      "blobGasPrice": "0x1",
      "from": "0x3c44cdddb6a900fa2b585dd299e03d12fa4293bc",
      "to": "0xb99cc53e8db7018f557606c2a5b066527bf96b26",
      "contractAddress": null
    }
  ],
  "libraries": [],
  "pending": [],
  "returns": {},
  "timestamp": 1765449734,
  "chain": 31338,
  "commit": "ddd34a7"
}