{
  "transactions": [
    {
      "hash": "0xa9d394be38bb8fd3ffee0fcdd62a953dce1838036f1c1bb5db3e83f3c708c5fd",
      "transactionType": "CALL",
      "contractName": null,
      "contractAddress": "0xb99cc53e8db7018f557606c2a5b066527bf96b26",
      "function": "createTask((address,(address,uint32),bytes))",
      "arguments": [
        "(0x0000000000000000000000000000000000000000, (0x70997970C51812dc3A010C7d01b50e0d17dc79C8, 1), 0x0000000000000000000000000000000000000000000000000000000000000001000000000000000000000000000000000000000000000000000000000000002a000000000000000000000000000000000000000000000000000000000000003a0000000000000000000000000000000000000000000000000000000000000064)"
      ],
      "transaction": {
        "from": "0x3c44cdddb6a900fa2b585dd299e03d12fa4293bc",
        "to": "0xb99cc53e8db7018f557606c2a5b066527bf96b26",
        "gas": "0x83e3c",
        "value": "0x0",
        "input": "0x1fb66f5d0000000000000000000000000000000000000000000000000000000000000020000000000000000000000000000000000000000000000000000000000000000000000000000000000000000070997970c51812dc3a010c7d01b50e0d17dc79c80000000000000000000000000000000000000000000000000000000000000001000000000000000000000000000000000000000000000000000000000000008000000000000000000000000000000000000000000000000000000000000000800000000000000000000000000000000000000000000000000000000000000001000000000000000000000000000000000000000000000000000000000000002a000000000000000000000000000000000000000000000000000000000000003a0000000000000000000000000000000000000000000000000000000000000064",
        "nonce": "0x409",
        "chainId": "0x7a6a"
      },
      "additionalContracts": [],
      "isFixedGasLimit": false
    }
  ],
  "receipts": [
    {
      "status": "0x1",
      "cumulativeGasUsed": "0x5f7c6",
      "logs": [
        {
          "address": "0xb99cc53e8db7018f557606c2a5b066527bf96b26",
          "topics": [
            "0x33add0b01e02278be5459fbfa3274aee699ec47f4ee7236b59e7a2c8b5000c26",
            "0x0000000000000000000000003c44cdddb6a900fa2b585dd299e03d12fa4293bc",
            "0x8fc21dcfa20e94f39dce2d5a20fa298d9fc9bc49ffbfc2042a02829a73dcaad5",
            "0x00000000000000000000000070997970c51812dc3a010c7d01b50e0d17dc79c8"
          ],
          "data": "0x00000000000000000000000000000000000000000000000000000000000000010000000000000000000000000000000000000000000000000000000068d1dfe9000000000000000000000000000000000000000000000000000000000000000000000000000000000000000000000000000000000000000000000000000000000000000000000000000000000000000000000000000000000000000068d1e1d700000000000000000000000000000000000000000000000000000000000000c000000000000000000000000000000000000000000000000000000000000000800000000000000000000000000000000000000000000000000000000000000001000000000000000000000000000000000000000000000000000000000000002a000000000000000000000000000000000000000000000000000000000000003a0000000000000000000000000000000000000000000000000000000000000064",
          "blockHash": "0xbaab34f55594967ce88813f633f5c806094d5f21896854a10c6c1378fa20d822",
          "blockNumber": "0x1df40ec",
          "blockTimestamp": "0x68d1e15f",
          "transactionHash": "0xa9d394be38bb8fd3ffee0fcdd62a953dce1838036f1c1bb5db3e83f3c708c5fd",
          "transactionIndex": "0x0",
          "logIndex": "0x0",
          "removed": false
        }
      ],
      "logsBloom": "0x00000800000000000002000000001000000000000000000000000000000000000000000000000000000000000000000020000004000000000000000000100000000000000000000000000000000000040000000000000000000000000000000000000900000000000000000000000000000800000000000000000000000000000000000000000000000000000000000000000000000800000000000000000000000000000000200000000004000000000000000000008000000000000000000000000000000000000000000000000000000000000000000000000000000000000000000000000000000000000000000001000000000000000000000000000000",
      "type": "0x2",
      "transactionHash": "0xa9d394be38bb8fd3ffee0fcdd62a953dce1838036f1c1bb5db3e83f3c708c5fd",
      "transactionIndex": "0x0",
      "blockHash": "0xbaab34f55594967ce88813f633f5c806094d5f21896854a10c6c1378fa20d822",
      "blockNumber": "0x1df40ec",
      "gasUsed": "0x5f7c6",
      "effectiveGasPrice": "0x1",
      "blobGasPrice": "0x1",
      "from": "0x3c44cdddb6a900fa2b585dd299e03d12fa4293bc",
      "to": "0xb99cc53e8db7018f557606c2a5b066527bf96b26",
      "contractAddress": null
    }
  ],
  "libraries": [],
  "pending": [],
  "returns": {},
  "timestamp": 1765365582,
  "chain": 31338,
  "commit": "ddd34a7"
}