{
  "transactions": [
    {
      "hash": "0x685b55d140ef0f210127e6fb031bd411fcd6690188ceaecb1bf8fe76f1f5fec0",
      "transactionType": "CALL",
      "contractName": null,
      "contractAddress": "0xb99cc53e8db7018f557606c2a5b066527bf96b26",
      "function": "createTask((address,(address,uint32),bytes))",
      "arguments": [
        "(0x0000000000000000000000000000000000000000, (0x70997970C51812dc3A010C7d01b50e0d17dc79C8, 1), 0x00000000000000000000000000000000000000000000000000000000000000200000000000000000000000000000000000000000000000000000000000000020000000000000000000000000000000000000000000000000000000000000006073b019503fc5cfa8f042f32967215617f69f58552c4369d54c3ef39e7f78017b00000000000000000000000000000000000000000000000000000000000000030000000000000000000000000000000000000000000000000000000000000001)"
      ],
      "transaction": {
        "from": "0x3c44cdddb6a900fa2b585dd299e03d12fa4293bc",
        "to": "0xb99cc53e8db7018f557606c2a5b066527bf96b26",
        "gas": "0x9bff4",
        "value": "0x0",
        "input": "0x1fb66f5d0000000000000000000000000000000000000000000000000000000000000020000000000000000000000000000000000000000000000000000000000000000000000000000000000000000070997970c51812dc3a010c7d01b50e0d17dc79c80000000000000000000000000000000000000000000000000000000000000001000000000000000000000000000000000000000000000000000000000000008000000000000000000000000000000000000000000000000000000000000000c000000000000000000000000000000000000000000000000000000000000000200000000000000000000000000000000000000000000000000000000000000020000000000000000000000000000000000000000000000000000000000000006073b019503fc5cfa8f042f32967215617f69f58552c4369d54c3ef39e7f78017b00000000000000000000000000000000000000000000000000000000000000030000000000000000000000000000000000000000000000000000000000000001",
        "nonce": "0x414",
        "chainId": "0x7a6a"
      },
      "additionalContracts": [],
      "isFixedGasLimit": false
    }
  ],
  "receipts": [
    {
      "status": "0x1",
      "cumulativeGasUsed": "0x6aaa3",
      "logs": [
        {
          "address": "0xb99cc53e8db7018f557606c2a5b066527bf96b26",
          "topics": [
            "0x33add0b01e02278be5459fbfa3274aee699ec47f4ee7236b59e7a2c8b5000c26",
            "0x0000000000000000000000003c44cdddb6a900fa2b585dd299e03d12fa4293bc",
            "0xecac4ee905acd0529595ba55242b642fd4e283af8c48448965b9a9a389422fe3",
            "0x00000000000000000000000070997970c51812dc3a010c7d01b50e0d17dc79c8"
          ],
          "data": "0x00000000000000000000000000000000000000000000000000000000000000010000000000000000000000000000000000000000000000000000000068ff1f33000000000000000000000000000000000000000000000000000000000000000000000000000000000000000000000000000000000000000000000000000000000000000000000000000000000000000000000000000000000000000068ff259f00000000000000000000000000000000000000000000000000000000000000c000000000000000000000000000000000000000000000000000000000000000c000000000000000000000000000000000000000000000000000000000000000200000000000000000000000000000000000000000000000000000000000000020000000000000000000000000000000000000000000000000000000000000006073b019503fc5cfa8f042f32967215617f69f58552c4369d54c3ef39e7f78017b00000000000000000000000000000000000000000000000000000000000000030000000000000000000000000000000000000000000000000000000000000001",
          "blockHash": "0x5e37841f4ea743665e64c31884ff566d2a4976950418cf9e2de72f1125bbc7aa",
          "blockNumber": "0x1e849ee",
          "blockTimestamp": "0x68ff2473",
          "transactionHash": "0x685b55d140ef0f210127e6fb031bd411fcd6690188ceaecb1bf8fe76f1f5fec0",
          "transactionIndex": "0x0",
          "logIndex": "0x0",
          "removed": false
        }
      ],
      "logsBloom": "0x00000800000000000002000200020000000000000000000000000000000000000000000000000000000000000000000020000000000000000000000000100000000000000000000000000000000000040000000000000000000000000000000000000900000000000000000000000000000800000000000000000000000000000000000000000000000000000000000000000000000000000000000000000000000000000000200000000004000000000000000000008000000000000000000000000000000000000000000000000000000000002000000000000000000000000000000000000000000000000000000001000000000000000000000000000000",
      "type": "0x2",
      "transactionHash": "0x685b55d140ef0f210127e6fb031bd411fcd6690188ceaecb1bf8fe76f1f5fec0",
      "transactionIndex": "0x0",
      "blockHash": "0x5e37841f4ea743665e64c31884ff566d2a4976950418cf9e2de72f1125bbc7aa",
      "blockNumber": "0x1e849ee",
      "gasUsed": "0x6aaa3",
      "effectiveGasPrice": "0x342770c0",
      "blobGasPrice": "0x1",
      "from": "0x3c44cdddb6a900fa2b585dd299e03d12fa4293bc",
      "to": "0xb99cc53e8db7018f557606c2a5b066527bf96b26",
      "contractAddress": null
    }
  ],
  "libraries": [],
  "pending": [],
  "returns": {},
  "timestamp": 1765807967,
  "chain": 31338,
  "commit": "d92619a"
}