{
  "transactions": [
    {
      "hash": "0x9b9099e61ee44dacffdcced596cde6ef188ed58e77efe6b84ebcdc91b0def235",
      "transactionType": "CALL",
      "contractName": null,
      "contractAddress": "0xb99cc53e8db7018f557606c2a5b066527bf96b26",
      "function": "createTask((address,(address,uint32),bytes))",
      "arguments": [
        "(0x0000000000000000000000000000000000000000, (0x70997970C51812dc3A010C7d01b50e0d17dc79C8, 1), 0x000000000000000000000000000000000000000000000000000000000000002000000000000000000000000000000000000000000000000000000000000000200000000000000000000000000000000000000000000000000000000000000060a6bdf4c9e70edc9cb6fb84a074e40b002af1db691b78e96f778b05776421dd5d00000000000000000000000000000000000000000000000000000000000000010000000000000000000000000000000000000000000000000000000000000001)"
      ],
      "transaction": {
        "from": "0x3c44cdddb6a900fa2b585dd299e03d12fa4293bc",
        "to": "0xb99cc53e8db7018f557606c2a5b066527bf96b26",
        "gas": "0x93539",
        "value": "0x0",
        "input": "0x1fb66f5d0000000000000000000000000000000000000000000000000000000000000020000000000000000000000000000000000000000000000000000000000000000000000000000000000000000070997970c51812dc3a010c7d01b50e0d17dc79c80000000000000000000000000000000000000000000000000000000000000001000000000000000000000000000000000000000000000000000000000000008000000000000000000000000000000000000000000000000000000000000000c0000000000000000000000000000000000000000000000000000000000000002000000000000000000000000000000000000000000000000000000000000000200000000000000000000000000000000000000000000000000000000000000060a6bdf4c9e70edc9cb6fb84a074e40b002af1db691b78e96f778b05776421dd5d00000000000000000000000000000000000000000000000000000000000000010000000000000000000000000000000000000000000000000000000000000001",
        "nonce": "0x40c",
        "chainId": "0x7a6a"
      },
      "additionalContracts": [],
      "isFixedGasLimit": false
    }
  ],
  "receipts": [
    {
      "status": "0x1",
      "cumulativeGasUsed": "0x6aa97",
      "logs": [
        {
          "address": "0xb99cc53e8db7018f557606c2a5b066527bf96b26",
          "topics": [
            "0x33add0b01e02278be5459fbfa3274aee699ec47f4ee7236b59e7a2c8b5000c26",
            "0x0000000000000000000000003c44cdddb6a900fa2b585dd299e03d12fa4293bc",
            "0x811dac12aaa989ac423be2aa379459f7c5939bb47e23ca6f946dd31969ecb9a3",
            "0x00000000000000000000000070997970c51812dc3a010c7d01b50e0d17dc79c8"
          ],
          "data": "0x00000000000000000000000000000000000000000000000000000000000000010000000000000000000000000000000000000000000000000000000068ff1f33000000000000000000000000000000000000000000000000000000000000000000000000000000000000000000000000000000000000000000000000000000000000000000000000000000000000000000000000000000000000000068ff247600000000000000000000000000000000000000000000000000000000000000c000000000000000000000000000000000000000000000000000000000000000c0000000000000000000000000000000000000000000000000000000000000002000000000000000000000000000000000000000000000000000000000000000200000000000000000000000000000000000000000000000000000000000000060a6bdf4c9e70edc9cb6fb84a074e40b002af1db691b78e96f778b05776421dd5d00000000000000000000000000000000000000000000000000000000000000010000000000000000000000000000000000000000000000000000000000000001",
          "blockHash": "0xe7d07a2963d82c71c87dbd88f85230b5af3ed05a2bcd2f2e899788da950deb8f",
          "blockNumber": "0x1e8498b",
          "blockTimestamp": "0x68ff234a",
          "transactionHash": "0x9b9099e61ee44dacffdcced596cde6ef188ed58e77efe6b84ebcdc91b0def235",
          "transactionIndex": "0x0",
          "logIndex": "0x0",
          "removed": false
        }
      ],
      "logsBloom": "0x00000800000000000002000000000000000000000000000000000000000000000000000000000000000000000000000020000000000000000000000000100000000000000000000000000000000000040000000000000000000000000000000000000900000000000000000000000000000800000000000000000000000000000000100000000000000000000000000000000000000000000000000000000000000000000000200000000004000000000000000000008000000000000200000000000000000000000000000000000000000000000000000000000000000000000000000000000000000000000000000001004000000000000000000000000000",
      "type": "0x2",
      "transactionHash": "0x9b9099e61ee44dacffdcced596cde6ef188ed58e77efe6b84ebcdc91b0def235",
      "transactionIndex": "0x0",
      "blockHash": "0xe7d07a2963d82c71c87dbd88f85230b5af3ed05a2bcd2f2e899788da950deb8f",
      "blockNumber": "0x1e8498b",
      "gasUsed": "0x6aa97",
      "effectiveGasPrice": "0x1dcd6500",
      "blobGasPrice": "0x1",
      "from": "0x3c44cdddb6a900fa2b585dd299e03d12fa4293bc",
      "to": "0xb99cc53e8db7018f557606c2a5b066527bf96b26",
      "contractAddress": null
    }
  ],
  "libraries": [],
  "pending": [],
  "returns": {},
  "timestamp": 1765807670,
  "chain": 31338,
  "commit": "d92619a"
}