{
  "transactions": [
    {
      "hash": "0x78f47a677ec3268e58f1df395e07b1daa96be50618c15d530cef0789ef00ea03",
      "transactionType": "CALL",
      "contractName": null,
      "contractAddress": "0xb99cc53e8db7018f557606c2a5b066527bf96b26",
      "function": "createTask((address,(address,uint32),bytes))",
      "arguments": [
        "(0x0000000000000000000000000000000000000000, (0x70997970C51812dc3A010C7d01b50e0d17dc79C8, 1), 0x0000000000000000000000000000000000000000000000000000000000000020000000000000000000000000000000000000000000000000000000000000002000000000000000000000000000000000000000000000000000000000000000600d1c613a32e7a069f3203b9e5feac5db6164e7c36a2ec0f681ab01adc04338c500000000000000000000000000000000000000000000000000000000000000040000000000000000000000000000000000000000000000000000000000000001)"
      ],
      "transaction": {
        "from": "0x3c44cdddb6a900fa2b585dd299e03d12fa4293bc",
        "to": "0xb99cc53e8db7018f557606c2a5b066527bf96b26",
        "gas": "0x9bff4",
        "value": "0x0",
        "input": "0x1fb66f5d0000000000000000000000000000000000000000000000000000000000000020000000000000000000000000000000000000000000000000000000000000000000000000000000000000000070997970c51812dc3a010c7d01b50e0d17dc79c80000000000000000000000000000000000000000000000000000000000000001000000000000000000000000000000000000000000000000000000000000008000000000000000000000000000000000000000000000000000000000000000c00000000000000000000000000000000000000000000000000000000000000020000000000000000000000000000000000000000000000000000000000000002000000000000000000000000000000000000000000000000000000000000000600d1c613a32e7a069f3203b9e5feac5db6164e7c36a2ec0f681ab01adc04338c500000000000000000000000000000000000000000000000000000000000000040000000000000000000000000000000000000000000000000000000000000001",
        "nonce": "0x41a",
        "chainId": "0x7a6a"
      },
      "additionalContracts": [],
      "isFixedGasLimit": false
    }
  ],
  "receipts": [
    {
      "status": "0x1",
      "cumulativeGasUsed": "0x6aaa3",
      "logs": [
        {
          "address": "0xb99cc53e8db7018f557606c2a5b066527bf96b26",
          "topics": [
            "0x33add0b01e02278be5459fbfa3274aee699ec47f4ee7236b59e7a2c8b5000c26",
            "0x0000000000000000000000003c44cdddb6a900fa2b585dd299e03d12fa4293bc",
            "0xdfb4688c0b02267bd7adf0f57ab79eb1be30edfdd4ee5fdbf79a92e448c8a845",
            "0x00000000000000000000000070997970c51812dc3a010c7d01b50e0d17dc79c8"
          ],
          "data": "0x00000000000000000000000000000000000000000000000000000000000000010000000000000000000000000000000000000000000000000000000068ff1f33000000000000000000000000000000000000000000000000000000000000000000000000000000000000000000000000000000000000000000000000000000000000000000000000000000000000000000000000000000000000000068ff270300000000000000000000000000000000000000000000000000000000000000c000000000000000000000000000000000000000000000000000000000000000c00000000000000000000000000000000000000000000000000000000000000020000000000000000000000000000000000000000000000000000000000000002000000000000000000000000000000000000000000000000000000000000000600d1c613a32e7a069f3203b9e5feac5db6164e7c36a2ec0f681ab01adc04338c500000000000000000000000000000000000000000000000000000000000000040000000000000000000000000000000000000000000000000000000000000001",
          "blockHash": "0xa6f25f274ea777337436ea10f5654d614b6ba38cc6c0f90c7ca7fc953aea8adb",
          "blockNumber": "0x1e84a65",
          "blockTimestamp": "0x68ff25d7",
          "transactionHash": "0x78f47a677ec3268e58f1df395e07b1daa96be50618c15d530cef0789ef00ea03",
          "transactionIndex": "0x0",
          "logIndex": "0x0",
          "removed": false
        }
      ],
      "logsBloom": "0x00000800000000000002000000000000000000000000000000000000000000000008000000000000000000000000000020000000000000000000000000100000000000000000000000000000000000040000000000000000000000000000000000000900000000000000000000000000000800000000000000000000000000000000000000000000000000000000000000000000000000000000000000000000000000000000200000000004000000000000000000008000000400000000000000000000000000000000000000000000000000000000000000000000000000000000000000000000000000100000000001000000000000000000000000000000",
      "type": "0x2",
      "transactionHash": "0x78f47a677ec3268e58f1df395e07b1daa96be50618c15d530cef0789ef00ea03",
      "transactionIndex": "0x0",
      "blockHash": "0xa6f25f274ea777337436ea10f5654d614b6ba38cc6c0f90c7ca7fc953aea8adb",
      "blockNumber": "0x1e84a65",
      "gasUsed": "0x6aaa3",
      "effectiveGasPrice": "0x37e11d60",
      "blobGasPrice": "0x1",
      "from": "0x3c44cdddb6a900fa2b585dd299e03d12fa4293bc",
      "to": "0xb99cc53e8db7018f557606c2a5b066527bf96b26",
      "contractAddress": null
    }
  ],
  "libraries": [],
  "pending": [],
  "returns": {},
  "timestamp": 1765808324,
  "chain": 31338,
  "commit": "d92619a"
}