{
  "transactions": [
    {
      "hash": "0x2eb09e01cc397c5314dacc505c12a53f97fe42f6d2fda59a3e1040444f51fc81",
      "transactionType": "CALL",
      "contractName": null,
      "contractAddress": "0xb99cc53e8db7018f557606c2a5b066527bf96b26",
      "function": "createTask((address,(address,uint32),bytes))",
      "arguments": [
        "(0x0000000000000000000000000000000000000000, (0x70997970C51812dc3A010C7d01b50e0d17dc79C8, 1), 0x000000000000000000000000000000000000000000000000000000000000002000000000000000000000000000000000000000000000000000000000000000200000000000000000000000000000000000000000000000000000000000000060d6a13d2764a9d72c5df9b9c0ad0d344cb0d377d7d5b6f489a0a7342a7c6c9cd700000000000000000000000000000000000000000000000000000000000000010000000000000000000000000000000000000000000000000000000000000001)"
      ],
      "transaction": {
        "from": "0x3c44cdddb6a900fa2b585dd299e03d12fa4293bc",
        "to": "0xb99cc53e8db7018f557606c2a5b066527bf96b26",
        "gas": "0x9bff4",
        "value": "0x0",
        "input": "0x1fb66f5d0000000000000000000000000000000000000000000000000000000000000020000000000000000000000000000000000000000000000000000000000000000000000000000000000000000070997970c51812dc3a010c7d01b50e0d17dc79c80000000000000000000000000000000000000000000000000000000000000001000000000000000000000000000000000000000000000000000000000000008000000000000000000000000000000000000000000000000000000000000000c0000000000000000000000000000000000000000000000000000000000000002000000000000000000000000000000000000000000000000000000000000000200000000000000000000000000000000000000000000000000000000000000060d6a13d2764a9d72c5df9b9c0ad0d344cb0d377d7d5b6f489a0a7342a7c6c9cd700000000000000000000000000000000000000000000000000000000000000010000000000000000000000000000000000000000000000000000000000000001",
        "nonce": "0x412",
        "chainId": "0x7a6a"
      },
      "additionalContracts": [],
      "isFixedGasLimit": false
    }
  ],
  "receipts": [
    {
      "status": "0x1",
      "cumulativeGasUsed": "0x6aaa3",
      "logs": [
        {
          "address": "0xb99cc53e8db7018f557606c2a5b066527bf96b26",
          "topics": [
            "0x33add0b01e02278be5459fbfa3274aee699ec47f4ee7236b59e7a2c8b5000c26",
            "0x0000000000000000000000003c44cdddb6a900fa2b585dd299e03d12fa4293bc",
            "0x8ab28348c5d6731930d587521494e2e8ee68b7041fddd198dfa8b82a97da90bf",
            "0x00000000000000000000000070997970c51812dc3a010c7d01b50e0d17dc79c8"
          ],
          "data": "0x00000000000000000000000000000000000000000000000000000000000000010000000000000000000000000000000000000000000000000000000068ff1f33000000000000000000000000000000000000000000000000000000000000000000000000000000000000000000000000000000000000000000000000000000000000000000000000000000000000000000000000000000000000000068ff258d00000000000000000000000000000000000000000000000000000000000000c000000000000000000000000000000000000000000000000000000000000000c0000000000000000000000000000000000000000000000000000000000000002000000000000000000000000000000000000000000000000000000000000000200000000000000000000000000000000000000000000000000000000000000060d6a13d2764a9d72c5df9b9c0ad0d344cb0d377d7d5b6f489a0a7342a7c6c9cd700000000000000000000000000000000000000000000000000000000000000010000000000000000000000000000000000000000000000000000000000000001",
          "blockHash": "0x0387c9ef560fd6d1bc07be1f9e7b33a5ac0e25b2d83450aeac47281e792634a9",
          "blockNumber": "0x1e849e8",
          "blockTimestamp": "0x68ff2461",
          "transactionHash": "0x2eb09e01cc397c5314dacc505c12a53f97fe42f6d2fda59a3e1040444f51fc81",
          "transactionIndex": "0x0",
          "logIndex": "0x0",
          "removed": false
        }
      ],
      "logsBloom": "0x00000800000000000002000000000001000000000000000000000000000000000000000000000000000000000000000020000000000000000000000000100000000000000000000000000000000000040200000000000000000000000000000000000900000000000000000000000000000800000000000000000000000000000000000040000000000000000000000000000000000000000000000000000000000000000000200000000004000000000000000000008000000000000000000000000000000000000000000000000000000000000000000000000000000000000000000000000000000000000000000001000000000000000000000000000000",
      "type": "0x2",
      "transactionHash": "0x2eb09e01cc397c5314dacc505c12a53f97fe42f6d2fda59a3e1040444f51fc81",
      "transactionIndex": "0x0",
      "blockHash": "0x0387c9ef560fd6d1bc07be1f9e7b33a5ac0e25b2d83450aeac47281e792634a9",
      "blockNumber": "0x1e849e8",
      "gasUsed": "0x6aaa3",
      "effectiveGasPrice": "0x1dcd6500",
      "blobGasPrice": "0x1",
      "from": "0x3c44cdddb6a900fa2b585dd299e03d12fa4293bc",
      "to": "0xb99cc53e8db7018f557606c2a5b066527bf96b26",
      "contractAddress": null
    }
  ],
  "libraries": [],
  "pending": [],
  "returns": {},
  "timestamp": 1765807949,
  "chain": 31338,
  "commit": "d92619a"
}