{
  "transactions": [
    {
      "hash": "0xe97de24b7d1953f145727d34b84cac5a2ac131e31379dfb3b497236c2f832a8c",
      "transactionType": "CALL",
      "contractName": null,
      "contractAddress": "0xb99cc53e8db7018f557606c2a5b066527bf96b26",
      "function": "createTask((address,(address,uint32),bytes))",
      "arguments": [
        "(0x0000000000000000000000000000000000000000, (0x70997970C51812dc3A010C7d01b50e0d17dc79C8, 1), 0x00000000000000000000000000000000000000000000000000000000000000200000000000000000000000000000000000000000000000000000000000000020000000000000000000000000000000000000000000000000000000000000006077e45042edea575a9b293ab4d113bc995f47114f81923cbcf8f19621058fe1f900000000000000000000000000000000000000000000000000000000000000040000000000000000000000000000000000000000000000000000000000000001)"
      ],
      "transaction": {
        "from": "0x3c44cdddb6a900fa2b585dd299e03d12fa4293bc",
        "to": "0xb99cc53e8db7018f557606c2a5b066527bf96b26",
        "gas": "0x9bff4",
        "value": "0x0",
        "input": "0x1fb66f5d0000000000000000000000000000000000000000000000000000000000000020000000000000000000000000000000000000000000000000000000000000000000000000000000000000000070997970c51812dc3a010c7d01b50e0d17dc79c80000000000000000000000000000000000000000000000000000000000000001000000000000000000000000000000000000000000000000000000000000008000000000000000000000000000000000000000000000000000000000000000c000000000000000000000000000000000000000000000000000000000000000200000000000000000000000000000000000000000000000000000000000000020000000000000000000000000000000000000000000000000000000000000006077e45042edea575a9b293ab4d113bc995f47114f81923cbcf8f19621058fe1f900000000000000000000000000000000000000000000000000000000000000040000000000000000000000000000000000000000000000000000000000000001",
        "nonce": "0x42e",
        "chainId": "0x7a6a"
      },
      "additionalContracts": [],
      "isFixedGasLimit": false
    }
  ],
  "receipts": [
    {
      "status": "0x1",
      "cumulativeGasUsed": "0x6aaa3",
      "logs": [
        {
          "address": "0xb99cc53e8db7018f557606c2a5b066527bf96b26",
          "topics": [
            "0x33add0b01e02278be5459fbfa3274aee699ec47f4ee7236b59e7a2c8b5000c26",
            "0x0000000000000000000000003c44cdddb6a900fa2b585dd299e03d12fa4293bc",
            "0x8bb89b1a735188709297ef329a00391d39f16a824a5b547e4aab1ce1cbe8dd6b",
            "0x00000000000000000000000070997970c51812dc3a010c7d01b50e0d17dc79c8"
          ],
          "data": "0x00000000000000000000000000000000000000000000000000000000000000010000000000000000000000000000000000000000000000000000000068ff1f33000000000000000000000000000000000000000000000000000000000000000000000000000000000000000000000000000000000000000000000000000000000000000000000000000000000000000000000000000000000000000068ff2a4500000000000000000000000000000000000000000000000000000000000000c000000000000000000000000000000000000000000000000000000000000000c000000000000000000000000000000000000000000000000000000000000000200000000000000000000000000000000000000000000000000000000000000020000000000000000000000000000000000000000000000000000000000000006077e45042edea575a9b293ab4d113bc995f47114f81923cbcf8f19621058fe1f900000000000000000000000000000000000000000000000000000000000000040000000000000000000000000000000000000000000000000000000000000001",
          "blockHash": "0x1ce1595ec2deac21728db8846db9bbae6b1458b5043760f9b9e2b4e053c79b38",
          "blockNumber": "0x1e84b7b",
          "blockTimestamp": "0x68ff2919",
          "transactionHash": "0xe97de24b7d1953f145727d34b84cac5a2ac131e31379dfb3b497236c2f832a8c",
          "transactionIndex": "0x0",
          "logIndex": "0x0",
          "removed": false
        }
      ],
      "logsBloom": "0x00000800000000000002000000000000000000000000000000000000000000000000000000000000000000000000000020000000000000000000000000100000000000000000000000000000000000040000000400000000000000000000000000000900000000000000000000000000000800000000000000000000000000000000000000000000000000000000000000000000000000000000000000000000000000000000200000000004000000000000000000108000000000000000000000000000000000000000000000000000000000000000000000000000000000000000000000000000000000000000000001000000000000000000000000080000",
      "type": "0x2",
      "transactionHash": "0xe97de24b7d1953f145727d34b84cac5a2ac131e31379dfb3b497236c2f832a8c",
      "transactionIndex": "0x0",
      "blockHash": "0x1ce1595ec2deac21728db8846db9bbae6b1458b5043760f9b9e2b4e053c79b38",
      "blockNumber": "0x1e84b7b",
      "gasUsed": "0x6aaa3",
      "effectiveGasPrice": "0x37e11d60",
      "blobGasPrice": "0x1",
      "from": "0x3c44cdddb6a900fa2b585dd299e03d12fa4293bc",
      "to": "0xb99cc53e8db7018f557606c2a5b066527bf96b26",
      "contractAddress": null
    }
  ],
  "libraries": [],
  "pending": [],
  "returns": {},
  "timestamp": 1765809158,
  "chain": 31338,
  "commit": "d92619a"
}