{
  "transactions": [
    {
      "hash": "0xf95f7a2fa30728e9780687f932e613f810642d327357d65ddfdbd4f961b7e348",
      "transactionType": "CALL",
      "contractName": null,
      "contractAddress": "0xb99cc53e8db7018f557606c2a5b066527bf96b26",
      "function": "createTask((address,(address,uint32),bytes))",
      "arguments": [
        "(0x0000000000000000000000000000000000000000, (0x70997970C51812dc3A010C7d01b50e0d17dc79C8, 1), 0x0000000000000000000000000000000000000000000000000000000000000020000000000000000000000000000000000000000000000000000000000000002000000000000000000000000000000000000000000000000000000000000000601c6f07c8cc1889885bd55b88a0c84a5634e565dec33da050a28905048922c0f700000000000000000000000000000000000000000000000000000000000000000000000000000000000000000000000000000000000000000000000000000001)"
      ],
      "transaction": {
        "from": "0x3c44cdddb6a900fa2b585dd299e03d12fa4293bc",
        "to": "0xb99cc53e8db7018f557606c2a5b066527bf96b26",
        "gas": "0x94e33",
        "value": "0x0",
        "input": "0x1fb66f5d0000000000000000000000000000000000000000000000000000000000000020000000000000000000000000000000000000000000000000000000000000000000000000000000000000000070997970c51812dc3a010c7d01b50e0d17dc79c80000000000000000000000000000000000000000000000000000000000000001000000000000000000000000000000000000000000000000000000000000008000000000000000000000000000000000000000000000000000000000000000c00000000000000000000000000000000000000000000000000000000000000020000000000000000000000000000000000000000000000000000000000000002000000000000000000000000000000000000000000000000000000000000000601c6f07c8cc1889885bd55b88a0c84a5634e565dec33da050a28905048922c0f700000000000000000000000000000000000000000000000000000000000000000000000000000000000000000000000000000000000000000000000000000001",
        "nonce": "0x411",
        "chainId": "0x7a6a"
      },
      "additionalContracts": [],
      "isFixedGasLimit": false
    }
  ],
  "receipts": [
    {
      "status": "0x1",
      "cumulativeGasUsed": "0x65cdb",
      "logs": [
        {
          "address": "0xb99cc53e8db7018f557606c2a5b066527bf96b26",
          "topics": [
            "0x33add0b01e02278be5459fbfa3274aee699ec47f4ee7236b59e7a2c8b5000c26",
            "0x0000000000000000000000003c44cdddb6a900fa2b585dd299e03d12fa4293bc",
            "0xa5b9bbeb70b81ee40ef147dec1812dbbaec328e730c34fb692572b3ac04a5dd0",
            "0x00000000000000000000000070997970c51812dc3a010c7d01b50e0d17dc79c8"
          ],
          "data": "0x00000000000000000000000000000000000000000000000000000000000000010000000000000000000000000000000000000000000000000000000068ff1f33000000000000000000000000000000000000000000000000000000000000000000000000000000000000000000000000000000000000000000000000000000000000000000000000000000000000000000000000000000000000000068ff258400000000000000000000000000000000000000000000000000000000000000c000000000000000000000000000000000000000000000000000000000000000c00000000000000000000000000000000000000000000000000000000000000020000000000000000000000000000000000000000000000000000000000000002000000000000000000000000000000000000000000000000000000000000000601c6f07c8cc1889885bd55b88a0c84a5634e565dec33da050a28905048922c0f700000000000000000000000000000000000000000000000000000000000000000000000000000000000000000000000000000000000000000000000000000001",
          "blockHash": "0x705c674832afe38a95efd0e6e57d28ad70937b3e5f2a3467dd531c8c7f689786",
          "blockNumber": "0x1e849e5",
          "blockTimestamp": "0x68ff2458",
          "transactionHash": "0xf95f7a2fa30728e9780687f932e613f810642d327357d65ddfdbd4f961b7e348",
          "transactionIndex": "0x0",
          "logIndex": "0x0",
          "removed": false
        }
      ],
      "logsBloom": "0x00000800000000000002000000000000000000000000000000000000000000000000000000000000000000000000000020000000000000000000000000100000000000000000000000000000000020040000000000000000000000000000000000000900000000000000000000000000000800000000000000000000000000000000000000000000000000000000000000000000000000000000000000000000800000000000200000000004000000000000000000008000000000000000000000000000000000000000000000000000000000000000000000000000000000000000000000000000000000000000000001000000000000000100000000000000",
      "type": "0x2",
      "transactionHash": "0xf95f7a2fa30728e9780687f932e613f810642d327357d65ddfdbd4f961b7e348",
      "transactionIndex": "0x0",
      "blockHash": "0x705c674832afe38a95efd0e6e57d28ad70937b3e5f2a3467dd531c8c7f689786",
      "blockNumber": "0x1e849e5",
      "gasUsed": "0x65cdb",
      "effectiveGasPrice": "0x1",
      "blobGasPrice": "0x1",
      "from": "0x3c44cdddb6a900fa2b585dd299e03d12fa4293bc",
      "to": "0xb99cc53e8db7018f557606c2a5b066527bf96b26",
      "contractAddress": null
    }
  ],
  "libraries": [],
  "pending": [],
  "returns": {},
  "timestamp": 1765807940,
  "chain": 31338,
  "commit": "d92619a"
}