{
  "transactions": [
    {
      "hash": "0x2557c5febed04222ae30119b92137f5962381db4bdd45136452473dbeb26e2b2",
      "transactionType": "CALL",
      "contractName": null,
      "contractAddress": "0xb99cc53e8db7018f557606c2a5b066527bf96b26",
      "function": "createTask((address,(address,uint32),bytes))",
      "arguments": [
        "(0x0000000000000000000000000000000000000000, (0x70997970C51812dc3A010C7d01b50e0d17dc79C8, 1), 0x0000000000000000000000000000000000000000000000000000000000000001000000000000000000000000000000000000000000000000000000000000002a000000000000000000000000000000000000000000000000000000000000003a0000000000000000000000000000000000000000000000000000000000000064)"
      ],
      "transaction": {
        "from": "0x3c44cdddb6a900fa2b585dd299e03d12fa4293bc",
        "to": "0xb99cc53e8db7018f557606c2a5b066527bf96b26",
        "gas": "0x8ba92",
        "value": "0x0",
        "input": "0x1fb66f5d0000000000000000000000000000000000000000000000000000000000000020000000000000000000000000000000000000000000000000000000000000000000000000000000000000000070997970c51812dc3a010c7d01b50e0d17dc79c80000000000000000000000000000000000000000000000000000000000000001000000000000000000000000000000000000000000000000000000000000008000000000000000000000000000000000000000000000000000000000000000800000000000000000000000000000000000000000000000000000000000000001000000000000000000000000000000000000000000000000000000000000002a000000000000000000000000000000000000000000000000000000000000003a0000000000000000000000000000000000000000000000000000000000000064",
        "nonce": "0x409",
        "chainId": "0x7a6a"
      },
      "additionalContracts": [],
      "isFixedGasLimit": false
    }
  ],
  "receipts": [
    {
      "status": "0x1",
      "cumulativeGasUsed": "0x5f7ea",
      "logs": [
        {
          "address": "0xb99cc53e8db7018f557606c2a5b066527bf96b26",
          "topics": [
            "0x33add0b01e02278be5459fbfa3274aee699ec47f4ee7236b59e7a2c8b5000c26",
            "0x0000000000000000000000003c44cdddb6a900fa2b585dd299e03d12fa4293bc",
            "0x8fc21dcfa20e94f39dce2d5a20fa298d9fc9bc49ffbfc2042a02829a73dcaad5",
            "0x00000000000000000000000070997970c51812dc3a010c7d01b50e0d17dc79c8"
          ],
          "data": "0x00000000000000000000000000000000000000000000000000000000000000010000000000000000000000000000000000000000000000000000000068d1dfe9000000000000000000000000000000000000000000000000000000000000000000000000000000000000000000000000000000000000000000000000000000000000000000000000000000000000000000000000000000000000000068d1e1ce00000000000000000000000000000000000000000000000000000000000000c000000000000000000000000000000000000000000000000000000000000000800000000000000000000000000000000000000000000000000000000000000001000000000000000000000000000000000000000000000000000000000000002a000000000000000000000000000000000000000000000000000000000000003a0000000000000000000000000000000000000000000000000000000000000064",
          "blockHash": "0xb861217527554ee7479094469cb892507d06e2e7ac2d27bc76e7ad043187cdf0",
          "blockNumber": "0x1df40e9",
          "blockTimestamp": "0x68d1e156",
          "transactionHash": "0x2557c5febed04222ae30119b92137f5962381db4bdd45136452473dbeb26e2b2",
          "transactionIndex": "0x0",
          "logIndex": "0x0",
          "removed": false
        }
      ],
      "logsBloom": "0x00000800000000000002000000001000000000000000000000000000000000000000000000000000000000000000000020000004000000000000000000100000000000000000000000000000000000040000000000000000000000000000000000000900000000000000000000000000000800000000000000000000000000000000000000000000000000000000000000000000000800000000000000000000000000000000200000000004000000000000000000008000000000000000000000000000000000000000000000000000000000000000000000000000000000000000000000000000000000000000000001000000000000000000000000000000",
      "type": "0x2",
      "transactionHash": "0x2557c5febed04222ae30119b92137f5962381db4bdd45136452473dbeb26e2b2",
      "transactionIndex": "0x0",
      "blockHash": "0xb861217527554ee7479094469cb892507d06e2e7ac2d27bc76e7ad043187cdf0",
      "blockNumber": "0x1df40e9",
      "gasUsed": "0x5f7ea",
      "effectiveGasPrice": "0x1",
      "blobGasPrice": "0x1",
      "from": "0x3c44cdddb6a900fa2b585dd299e03d12fa4293bc",
      "to": "0xb99cc53e8db7018f557606c2a5b066527bf96b26",
      "contractAddress": null
    }
  ],
  "libraries": [],
  "pending": [],
  "returns": {},
  "timestamp": 1764943675,
  "chain": 31338,
  "commit": "ddd34a7"
}