{
  "transactions": [
    {
      "hash": "0xb4c05e151c6b48e4a585093d03f961880e9c6e9049dc9937e0d7d72292e92dcf",
      "transactionType": "CALL",
      "contractName": null,
      "contractAddress": "0xb99cc53e8db7018f557606c2a5b066527bf96b26",
      "function": "createTask((address,(address,uint32),bytes))",
      "arguments": [
        "(0x0000000000000000000000000000000000000000, (0x70997970C51812dc3A010C7d01b50e0d17dc79C8, 1), 0x0000000000000000000000000000000000000000000000000000000000000005000000000000000000000000000000000000000000000000000000000000000f0000000000000000000000000000000000000000000000000000000000000014000000000000000000000000000000000000000000000000000000000000001e)"
      ],
      "transaction": {
        "from": "0x3c44cdddb6a900fa2b585dd299e03d12fa4293bc",
        "to": "0xb99cc53e8db7018f557606c2a5b066527bf96b26",
        "gas": "0x83e3c",
        "value": "0x0",
        "input": "0x1fb66f5d0000000000000000000000000000000000000000000000000000000000000020000000000000000000000000000000000000000000000000000000000000000000000000000000000000000070997970c51812dc3a010c7d01b50e0d17dc79c80000000000000000000000000000000000000000000000000000000000000001000000000000000000000000000000000000000000000000000000000000008000000000000000000000000000000000000000000000000000000000000000800000000000000000000000000000000000000000000000000000000000000005000000000000000000000000000000000000000000000000000000000000000f0000000000000000000000000000000000000000000000000000000000000014000000000000000000000000000000000000000000000000000000000000001e",
        "nonce": "0x40a",
        "chainId": "0x7a6a"
      },
      "additionalContracts": [],
      "isFixedGasLimit": false
    }
  ],
  "receipts": [
    {
      "status": "0x1",
      "cumulativeGasUsed": "0x5f7c6",
      "logs": [
        {
          "address": "0xb99cc53e8db7018f557606c2a5b066527bf96b26",
          "topics": [
            "0x33add0b01e02278be5459fbfa3274aee699ec47f4ee7236b59e7a2c8b5000c26",
            "0x0000000000000000000000003c44cdddb6a900fa2b585dd299e03d12fa4293bc",
            "0xd816f31799c08bf49a2f2e18cfd026d67aeb6df27267f4783bac1b3a9a638bfe",
            "0x00000000000000000000000070997970c51812dc3a010c7d01b50e0d17dc79c8"
          ],
          "data": "0x00000000000000000000000000000000000000000000000000000000000000010000000000000000000000000000000000000000000000000000000068d1f8db000000000000000000000000000000000000000000000000000000000000000000000000000000000000000000000000000000000000000000000000000000000000000000000000000000000000000000000000000000000000000068d2184500000000000000000000000000000000000000000000000000000000000000c000000000000000000000000000000000000000000000000000000000000000800000000000000000000000000000000000000000000000000000000000000005000000000000000000000000000000000000000000000000000000000000000f0000000000000000000000000000000000000000000000000000000000000014000000000000000000000000000000000000000000000000000000000000001e",
          "blockHash": "0xa591e230b5627d20fd0fb83e53d533aed04c0c09198821bda8460690750782db",
          "blockNumber": "0x1df4e2b",
          "blockTimestamp": "0x68d217cd",
          "transactionHash": "0xb4c05e151c6b48e4a585093d03f961880e9c6e9049dc9937e0d7d72292e92dcf",
          "transactionIndex": "0x0",
          "logIndex": "0x0",
          "removed": false
        }
      ],
      "logsBloom": "0x00040800000000000002000000000000000000000000000000000000000800000000000000000000000000000000000020000000000000000000000000100000000000000000000000000000000000040000000000000000000000000000000000000900000000000000000000000000000800000000000000000000000000000000000000000000000000000000000000000000000000000000000000000000200000000000200000000004000000000000000000008000000000000000000000000000000000000000000000000000000000000000000000000000000000000000000000000000000000000000000001000000000000000000000000000000",
      "type": "0x2",
      "transactionHash": "0xb4c05e151c6b48e4a585093d03f961880e9c6e9049dc9937e0d7d72292e92dcf",
      "transactionIndex": "0x0",
      "blockHash": "0xa591e230b5627d20fd0fb83e53d533aed04c0c09198821bda8460690750782db",
      "blockNumber": "0x1df4e2b",
      "gasUsed": "0x5f7c6",
      "effectiveGasPrice": "0x1",
      "blobGasPrice": "0x1",
      "from": "0x3c44cdddb6a900fa2b585dd299e03d12fa4293bc",
      "to": "0xb99cc53e8db7018f557606c2a5b066527bf96b26",
      "contractAddress": null
    }
  ],
  "libraries": [],
  "pending": [],
  "returns": {},
  "timestamp": 1765379516,
  "chain": 31338,
  "commit": "ddd34a7"
}