{
  "transactions": [
    {
      "hash": "0x27a0eb4c2fe35e83663a64bf74f7e9624abe3222f4d97dd29dccc9443575b17c",
      "transactionType": "CALL",
      "contractName": null,
      "contractAddress": "0xb99cc53e8db7018f557606c2a5b066527bf96b26",
      "function": "createTask((address,(address,uint32),bytes))",
      "arguments": [
        "(0x0000000000000000000000000000000000000000, (0x70997970C51812dc3A010C7d01b50e0d17dc79C8, 1), 0x000000000000000000000000000000000000000000000000000000000000002000000000000000000000000000000000000000000000000000000000000000200000000000000000000000000000000000000000000000000000000000000060fa014efca273a98125efd18b8220a263efb1bc5fd17b9de619a6963c6e7055b400000000000000000000000000000000000000000000000000000000000000020000000000000000000000000000000000000000000000000000000000000001)"
      ],
      "transaction": {
        "from": "0x3c44cdddb6a900fa2b585dd299e03d12fa4293bc",
        "to": "0xb99cc53e8db7018f557606c2a5b066527bf96b26",
        "gas": "0x9bff4",
        "value": "0x0",
        "input": "0x1fb66f5d0000000000000000000000000000000000000000000000000000000000000020000000000000000000000000000000000000000000000000000000000000000000000000000000000000000070997970c51812dc3a010c7d01b50e0d17dc79c80000000000000000000000000000000000000000000000000000000000000001000000000000000000000000000000000000000000000000000000000000008000000000000000000000000000000000000000000000000000000000000000c0000000000000000000000000000000000000000000000000000000000000002000000000000000000000000000000000000000000000000000000000000000200000000000000000000000000000000000000000000000000000000000000060fa014efca273a98125efd18b8220a263efb1bc5fd17b9de619a6963c6e7055b400000000000000000000000000000000000000000000000000000000000000020000000000000000000000000000000000000000000000000000000000000001",
        "nonce": "0x427",
        "chainId": "0x7a6a"
      },
      "additionalContracts": [],
      "isFixedGasLimit": false
    }
  ],
  "receipts": [
    {
      "status": "0x1",
      "cumulativeGasUsed": "0x6aaa3",
      "logs": [
        {
          "address": "0xb99cc53e8db7018f557606c2a5b066527bf96b26",
          "topics": [
            "0x33add0b01e02278be5459fbfa3274aee699ec47f4ee7236b59e7a2c8b5000c26",
            "0x0000000000000000000000003c44cdddb6a900fa2b585dd299e03d12fa4293bc",
            "0x055dfe52db4f1d8f1eaeda232127060c1e6cd039bce5a03e1be66099cfae7749",
            "0x00000000000000000000000070997970c51812dc3a010c7d01b50e0d17dc79c8"
          ],
          "data": "0x00000000000000000000000000000000000000000000000000000000000000010000000000000000000000000000000000000000000000000000000068ff1f33000000000000000000000000000000000000000000000000000000000000000000000000000000000000000000000000000000000000000000000000000000000000000000000000000000000000000000000000000000000000000068ff297c00000000000000000000000000000000000000000000000000000000000000c000000000000000000000000000000000000000000000000000000000000000c0000000000000000000000000000000000000000000000000000000000000002000000000000000000000000000000000000000000000000000000000000000200000000000000000000000000000000000000000000000000000000000000060fa014efca273a98125efd18b8220a263efb1bc5fd17b9de619a6963c6e7055b400000000000000000000000000000000000000000000000000000000000000020000000000000000000000000000000000000000000000000000000000000001",
          "blockHash": "0x519cdba697629e01f472c9252a7b3c7415099fb116acac20570a9f881e7ba65a",
          "blockNumber": "0x1e84b38",
          "blockTimestamp": "0x68ff2850",
          "transactionHash": "0x27a0eb4c2fe35e83663a64bf74f7e9624abe3222f4d97dd29dccc9443575b17c",
          "transactionIndex": "0x0",
          "logIndex": "0x0",
          "removed": false
        }
      ],
      "logsBloom": "0x00000800000000000002000000000000000000000000000000000000000000000000000000000000000000000000000020000000000000000000000000100000000000000000000000000000000000040000000000400000000000000000000000000900000000000000000000000000000800000000000000000000000000000000000000000000000000000000000000000000000000000000000000000000000000000000200000000004000000000000000000008000000002000000010000000000000000000000000000000000000000000000000000000000000000000000000000000000000000000000000001000000000000000000000000000000",
      "type": "0x2",
      "transactionHash": "0x27a0eb4c2fe35e83663a64bf74f7e9624abe3222f4d97dd29dccc9443575b17c",
      "transactionIndex": "0x0",
      "blockHash": "0x519cdba697629e01f472c9252a7b3c7415099fb116acac20570a9f881e7ba65a",
      "blockNumber": "0x1e84b38",
      "gasUsed": "0x6aaa3",
      "effectiveGasPrice": "0x2cb41780",
      "blobGasPrice": "0x1",
      "from": "0x3c44cdddb6a900fa2b585dd299e03d12fa4293bc",
      "to": "0xb99cc53e8db7018f557606c2a5b066527bf96b26",
      "contractAddress": null
    }
  ],
  "libraries": [],
  "pending": [],
  "returns": {},
  "timestamp": 1765808957,
  "chain": 31338,
  "commit": "d92619a"
}