{
  "transactions": [
    {
      "hash": "0xb72e651c9d81af96dd114c7e9f468ff75f63c452983d2ee524b2342129068fcc",
      "transactionType": "CALL",
      "contractName": null,
      "contractAddress": "0xb99cc53e8db7018f557606c2a5b066527bf96b26",
      "function": "createTask((address,(address,uint32),bytes))",
      "arguments": [
        "(0x0000000000000000000000000000000000000000, (0x70997970C51812dc3A010C7d01b50e0d17dc79C8, 1), 0x000000000000000000000000000000000000000000000000000000000000000a000000000000000000000000000000000000000000000000000000000000000f0000000000000000000000000000000000000000000000000000000000000019)"
      ],
      "transaction": {
        "from": "0x3c44cdddb6a900fa2b585dd299e03d12fa4293bc",
        "to": "0xb99cc53e8db7018f557606c2a5b066527bf96b26",
        "gas": "0x83a31",
        "value": "0x0",
        "input": "0x1fb66f5d0000000000000000000000000000000000000000000000000000000000000020000000000000000000000000000000000000000000000000000000000000000000000000000000000000000070997970c51812dc3a010c7d01b50e0d17dc79c8000000000000000000000000000000000000000000000000000000000000000100000000000000000000000000000000000000000000000000000000000000800000000000000000000000000000000000000000000000000000000000000060000000000000000000000000000000000000000000000000000000000000000a000000000000000000000000000000000000000000000000000000000000000f0000000000000000000000000000000000000000000000000000000000000019",
        "nonce": "0x409",
        "chainId": "0x7a6a"
      },
      "additionalContracts": [],
      "isFixedGasLimit": false
    }
  ],
  "receipts": [
    {
      "status": "0x1",
      "cumulativeGasUsed": "0x5a022",
      "logs": [
        {
          "address": "0xb99cc53e8db7018f557606c2a5b066527bf96b26",
          "topics": [
            "0x33add0b01e02278be5459fbfa3274aee699ec47f4ee7236b59e7a2c8b5000c26",
            "0x0000000000000000000000003c44cdddb6a900fa2b585dd299e03d12fa4293bc",
            "0xe7737e5ef098919b548f0edade405078952864210c91432e5ca9f933c64ccba8",
            "0x00000000000000000000000070997970c51812dc3a010c7d01b50e0d17dc79c8"
          ],
          "data": "0x00000000000000000000000000000000000000000000000000000000000000010000000000000000000000000000000000000000000000000000000068ff1f30000000000000000000000000000000000000000000000000000000000000000000000000000000000000000000000000000000000000000000000000000000000000000000000000000000000000000000000000000000000000000068ff27fa00000000000000000000000000000000000000000000000000000000000000c00000000000000000000000000000000000000000000000000000000000000060000000000000000000000000000000000000000000000000000000000000000a000000000000000000000000000000000000000000000000000000000000000f0000000000000000000000000000000000000000000000000000000000000019",
          "blockHash": "0xa8daca4a1be31226c49a14468cf023f3b3ea5b0da1ebdd6a3a899730e6da73f5",
          "blockNumber": "0x1e84ab7",
          "blockTimestamp": "0x68ff26ce",
          "transactionHash": "0xb72e651c9d81af96dd114c7e9f468ff75f63c452983d2ee524b2342129068fcc",
          "transactionIndex": "0x0",
          "logIndex": "0x0",
          "removed": false
        }
      ],
      "logsBloom": "0x00000800000000000002000004000000000000000000000000000000000000000000000000000000000000000000000020000000000000000000000000100000000000000000000000000000000000040000000000000000000000000000000000000900000000000000000000000000000800000000000000000000000000000000000000000000000000000000000000000000000000000000000000000000000000000000200000000004004000000000000000008000000000000000000000000000000000000000000000000000000000000000000000000000000000000000000000000000000040000000000001000000000000000000000000000000",
      "type": "0x2",
      "transactionHash": "0xb72e651c9d81af96dd114c7e9f468ff75f63c452983d2ee524b2342129068fcc",
      "transactionIndex": "0x0",
      "blockHash": "0xa8daca4a1be31226c49a14468cf023f3b3ea5b0da1ebdd6a3a899730e6da73f5",
      "blockNumber": "0x1e84ab7",
      "gasUsed": "0x5a022",
      "effectiveGasPrice": "0x1",
      "blobGasPrice": "0x1",
      "from": "0x3c44cdddb6a900fa2b585dd299e03d12fa4293bc",
      "to": "0xb99cc53e8db7018f557606c2a5b066527bf96b26",
      "contractAddress": null
    }
  ],
  "libraries": [],
  "pending": [],
  "returns": {},
  "timestamp": 1765792494,
  "chain": 31338,
  "commit": "d92619a"
}