{
  "transactions": [
    {
      "hash": "0x1998cb28387a2d69ec4cc621cd046127e3664bcb05b3c7eab2a050469e6f4f02",
      "transactionType": "CALL",
      "contractName": null,
      "contractAddress": "0xb99cc53e8db7018f557606c2a5b066527bf96b26",
      "function": "createTask((address,(address,uint32),bytes))",
      "arguments": [
        "(0x0000000000000000000000000000000000000000, (0x70997970C51812dc3A010C7d01b50e0d17dc79C8, 1), 0x0000000000000000000000000000000000000000000000000000000000000005000000000000000000000000000000000000000000000000000000000000000a000000000000000000000000000000000000000000000000000000000000000f)"
      ],
      "transaction": {
        "from": "0x3c44cdddb6a900fa2b585dd299e03d12fa4293bc",
        "to": "0xb99cc53e8db7018f557606c2a5b066527bf96b26",
        "gas": "0x7c483",
        "value": "0x0",
        "input": "0x1fb66f5d0000000000000000000000000000000000000000000000000000000000000020000000000000000000000000000000000000000000000000000000000000000000000000000000000000000070997970c51812dc3a010c7d01b50e0d17dc79c80000000000000000000000000000000000000000000000000000000000000001000000000000000000000000000000000000000000000000000000000000008000000000000000000000000000000000000000000000000000000000000000600000000000000000000000000000000000000000000000000000000000000005000000000000000000000000000000000000000000000000000000000000000a000000000000000000000000000000000000000000000000000000000000000f",
        "nonce": "0x409",
        "chainId": "0x7a6a"
      },
      "additionalContracts": [],
      "isFixedGasLimit": false
    }
  ],
  "receipts": [
    {
      "status": "0x1",
      "cumulativeGasUsed": "0x59fa6",
      "logs": [
        {
          "address": "0xb99cc53e8db7018f557606c2a5b066527bf96b26",
          "topics": [
            "0x33add0b01e02278be5459fbfa3274aee699ec47f4ee7236b59e7a2c8b5000c26",
            "0x0000000000000000000000003c44cdddb6a900fa2b585dd299e03d12fa4293bc",
            "0xd2e60dc3eb9ddb17464569c8209187404a788df272d079a52c0286b22be052d1",
            "0x00000000000000000000000070997970c51812dc3a010c7d01b50e0d17dc79c8"
          ],
          "data": "0x00000000000000000000000000000000000000000000000000000000000000010000000000000000000000000000000000000000000000000000000068d1dfe8000000000000000000000000000000000000000000000000000000000000000000000000000000000000000000000000000000000000000000000000000000000000000000000000000000000000000000000000000000000000000068d1e1e300000000000000000000000000000000000000000000000000000000000000c000000000000000000000000000000000000000000000000000000000000000600000000000000000000000000000000000000000000000000000000000000005000000000000000000000000000000000000000000000000000000000000000a000000000000000000000000000000000000000000000000000000000000000f",
          "blockHash": "0xc1ad30ca5e784245dcd97c5a61182c698f0fca8d391b9125ae5c5b7caacfeb49",
          "blockNumber": "0x1df40f0",
          "blockTimestamp": "0x68d1e16b",
          "transactionHash": "0x1998cb28387a2d69ec4cc621cd046127e3664bcb05b3c7eab2a050469e6f4f02",
          "transactionIndex": "0x0",
          "logIndex": "0x0",
          "removed": false
        }
      ],
      "logsBloom": "0x00000800000000000002000000000100000000000000000000000000000000000000000000000000000000000000000020000000000000000000000000100000000000000000000000000000000000040000000000000000000000000000000000000900000000000000000000000000000800000000000000000000000000040000000000000000000000000000000000000000000000000000000000000000000000000000200000000004800000000000000000008000000000000000000000000000000000000000000000000000000000000000000000000000000000000000000000000000000000000000000001000000000000000000000000000000",
      "type": "0x2",
      "transactionHash": "0x1998cb28387a2d69ec4cc621cd046127e3664bcb05b3c7eab2a050469e6f4f02",
      "transactionIndex": "0x0",
      "blockHash": "0xc1ad30ca5e784245dcd97c5a61182c698f0fca8d391b9125ae5c5b7caacfeb49",
      "blockNumber": "0x1df40f0",
      "gasUsed": "0x59fa6",
      "effectiveGasPrice": "0x3b9aca00",
      "blobGasPrice": "0x1",
      "from": "0x3c44cdddb6a900fa2b585dd299e03d12fa4293bc",
      "to": "0xb99cc53e8db7018f557606c2a5b066527bf96b26",
      "contractAddress": null
    }
  ],
  "libraries": [],
  "pending": [],
  "returns": {},
  "timestamp": 1765386036,
  "chain": 31338,
  "commit": "ddd34a7"
}