{
  "transactions": [
    {
      "hash": "0xb8adfd5861edd5d746a061163363a3982925c61181d04a8b23d36c00a2df00a7",
      "transactionType": "CALL",
      "contractName": null,
      "contractAddress": "0xb99cc53e8db7018f557606c2a5b066527bf96b26",
      "function": "createTask((address,(address,uint32),bytes))",
      "arguments": [
        "(0x0000000000000000000000000000000000000000, (0x70997970C51812dc3A010C7d01b50e0d17dc79C8, 1), 0x000000000000000000000000000000000000000000000000000000000000002a000000000000000000000000000000000000000000000000000000000000003a0000000000000000000000000000000000000000000000000000000000000064)"
      ],
      "transaction": {
        "from": "0x3c44cdddb6a900fa2b585dd299e03d12fa4293bc",
        "to": "0xb99cc53e8db7018f557606c2a5b066527bf96b26",
        "gas": "0x7c416",
        "value": "0x0",
        "input": "0x1fb66f5d0000000000000000000000000000000000000000000000000000000000000020000000000000000000000000000000000000000000000000000000000000000000000000000000000000000070997970c51812dc3a010c7d01b50e0d17dc79c8000000000000000000000000000000000000000000000000000000000000000100000000000000000000000000000000000000000000000000000000000000800000000000000000000000000000000000000000000000000000000000000060000000000000000000000000000000000000000000000000000000000000002a000000000000000000000000000000000000000000000000000000000000003a0000000000000000000000000000000000000000000000000000000000000064",
        "nonce": "0x40c",
        "chainId": "0x7a6a"
      },
      "additionalContracts": [],
      "isFixedGasLimit": false
    }
  ],
  "receipts": [
    {
      "status": "0x1",
      "cumulativeGasUsed": "0x59f57",
      "logs": [
        {
          "address": "0xb99cc53e8db7018f557606c2a5b066527bf96b26",
          "topics": [
            "0x33add0b01e02278be5459fbfa3274aee699ec47f4ee7236b59e7a2c8b5000c26",
            "0x0000000000000000000000003c44cdddb6a900fa2b585dd299e03d12fa4293bc",
            "0x53aa9d942084eadaddfd56cb19c28e03966c2c7c59d25e72c72c8aeeaf3e257d",
            "0x00000000000000000000000070997970c51812dc3a010c7d01b50e0d17dc79c8"
          ],
          "data": "0x00000000000000000000000000000000000000000000000000000000000000010000000000000000000000000000000000000000000000000000000068d1efe9000000000000000000000000000000000000000000000000000000000000000000000000000000000000000000000000000000000000000000000000000000000000000000000000000000000000000000000000000000000000000068d1f8d700000000000000000000000000000000000000000000000000000000000000c00000000000000000000000000000000000000000000000000000000000000060000000000000000000000000000000000000000000000000000000000000002a000000000000000000000000000000000000000000000000000000000000003a0000000000000000000000000000000000000000000000000000000000000064",
          "blockHash": "0x30f58a1d4779cb52d996c0f3584154f17522e067dfba81bb6b02b51c63b24085",
          "blockNumber": "0x1df4897",
          "blockTimestamp": "0x68d1f85f",
          "transactionHash": "0xb8adfd5861edd5d746a061163363a3982925c61181d04a8b23d36c00a2df00a7",
          "transactionIndex": "0x0",
          "logIndex": "0x0",
          "removed": false
        }
      ],
      "logsBloom": "0x00000800000000000002000000000000008000000000000000000000000000000000000000000000000000000000000020000000000000000000000000100000000000000000000000000000000000040000000000000000000000000000000000000900200000000000000000000000000800000000000000000000000000000000000000000000000000000000000000000000000000000000000000000000000000000000200000000004000000000000000000008000000000000000000000000000000000000000000000000000000000000000100000000000000000000000000000000000000000000000000001000000000000000000000000000000",
      "type": "0x2",
      "transactionHash": "0xb8adfd5861edd5d746a061163363a3982925c61181d04a8b23d36c00a2df00a7",
      "transactionIndex": "0x0",
      "blockHash": "0x30f58a1d4779cb52d996c0f3584154f17522e067dfba81bb6b02b51c63b24085",
      "blockNumber": "0x1df4897",
      "gasUsed": "0x59f57",
      "effectiveGasPrice": "0x1",
      "blobGasPrice": "0x1",
      "from": "0x3c44cdddb6a900fa2b585dd299e03d12fa4293bc",
      "to": "0xb99cc53e8db7018f557606c2a5b066527bf96b26",
      "contractAddress": null
    }
  ],
  "libraries": [],
  "pending": [],
  "returns": {},
  "timestamp": 1764603360,
  "chain": 31338,
  "commit": "8681206"
}