{
  "transactions": [
    {
      "hash": "0xef9d0ee41742a74de1029f7ee23796aa4a54999f3a1b75466e19cdc88c915ac5",
      "transactionType": "CALL",
      "contractName": null,
      "contractAddress": "0xb99cc53e8db7018f557606c2a5b066527bf96b26",
      "function": "createTask((address,(address,uint32),bytes))",
      "arguments": [
        "(0x0000000000000000000000000000000000000000, (0x70997970C51812dc3A010C7d01b50e0d17dc79C8, 1), 0x0000000000000000000000000000000000000000000000000000000000000020000000000000000000000000000000000000000000000000000000000000002000000000000000000000000000000000000000000000000000000000000000021234000000000000000000000000000000000000000000000000000000000000)"
      ],
      "transaction": {
        "from": "0x3c44cdddb6a900fa2b585dd299e03d12fa4293bc",
        "to": "0xb99cc53e8db7018f557606c2a5b066527bf96b26",
        "gas": "0x83f46",
        "value": "0x0",
        "input": "0x1fb66f5d0000000000000000000000000000000000000000000000000000000000000020000000000000000000000000000000000000000000000000000000000000000000000000000000000000000070997970c51812dc3a010c7d01b50e0d17dc79c80000000000000000000000000000000000000000000000000000000000000001000000000000000000000000000000000000000000000000000000000000008000000000000000000000000000000000000000000000000000000000000000800000000000000000000000000000000000000000000000000000000000000020000000000000000000000000000000000000000000000000000000000000002000000000000000000000000000000000000000000000000000000000000000021234000000000000000000000000000000000000000000000000000000000000",
        "nonce": "0x40a",
        "chainId": "0x7a6a"
      },
      "additionalContracts": [],
      "isFixedGasLimit": false
    }
  ],
  "receipts": [
    {
      "status": "0x1",
      "cumulativeGasUsed": "0x5f887",
      "logs": [
        {
          "address": "0xb99cc53e8db7018f557606c2a5b066527bf96b26",
          "topics": [
            "0x33add0b01e02278be5459fbfa3274aee699ec47f4ee7236b59e7a2c8b5000c26",
            "0x0000000000000000000000003c44cdddb6a900fa2b585dd299e03d12fa4293bc",
            "0xf6c6605d87d5775a62d3e07f9361d39d478f2aaddeed9ea7304fc73965c69000",
            "0x00000000000000000000000070997970c51812dc3a010c7d01b50e0d17dc79c8"
          ],
          "data": "0x00000000000000000000000000000000000000000000000000000000000000010000000000000000000000000000000000000000000000000000000068ff1f33000000000000000000000000000000000000000000000000000000000000000000000000000000000000000000000000000000000000000000000000000000000000000000000000000000000000000000000000000000000000000068ff234a00000000000000000000000000000000000000000000000000000000000000c000000000000000000000000000000000000000000000000000000000000000800000000000000000000000000000000000000000000000000000000000000020000000000000000000000000000000000000000000000000000000000000002000000000000000000000000000000000000000000000000000000000000000021234000000000000000000000000000000000000000000000000000000000000",
          "blockHash": "0x601806a69ce7c29b6a01abd8906842428f9949a74130d94409218647c662afd5",
          "blockNumber": "0x1e84927",
          "blockTimestamp": "0x68ff221e",
          "transactionHash": "0xef9d0ee41742a74de1029f7ee23796aa4a54999f3a1b75466e19cdc88c915ac5",
          "transactionIndex": "0x0",
          "logIndex": "0x0",
          "removed": false
        }
      ],
      "logsBloom": "0x00000800000000000002000000000000000000000000000000000000000000000000000000000000000000000000000020000000000000000000000000100000000000000000000000000000000000040000000000000000000000000000000000000900000000000000000000000000000800000000000000000000000000000200000000000000000000000000000000000000000000000000000000000000000000000000200000000004000000000000000000008000000000000000000000400000000000000000000000000000000000000000000000000000000000000000000000000000000000100000000001000000000000000000000000000000",
      "type": "0x2",
      "transactionHash": "0xef9d0ee41742a74de1029f7ee23796aa4a54999f3a1b75466e19cdc88c915ac5",
      "transactionIndex": "0x0",
      "blockHash": "0x601806a69ce7c29b6a01abd8906842428f9949a74130d94409218647c662afd5",
      "blockNumber": "0x1e84927",
      "gasUsed": "0x5f887",
      "effectiveGasPrice": "0x1",
      "blobGasPrice": "0x1",
      "from": "0x3c44cdddb6a900fa2b585dd299e03d12fa4293bc",
      "to": "0xb99cc53e8db7018f557606c2a5b066527bf96b26",
      "contractAddress": null
    }
  ],
  "libraries": [],
  "pending": [],
  "returns": {},
  "timestamp": 1765807370,
  "chain": 31338,
  "commit": "d92619a"
}