{
  "transactions": [
    {
      "hash": "0xa293b6821b644481783bf16ac069cb91033d9cbf960db54a6d4b806f471a6cd6",
      "transactionType": "CALL",
      "contractName": null,
      "contractAddress": "0xb99cc53e8db7018f557606c2a5b066527bf96b26",
      "function": "createTask((address,(address,uint32),bytes))",
      "arguments": [
        "(0x0000000000000000000000000000000000000000, (0x70997970C51812dc3A010C7d01b50e0d17dc79C8, 1), 0x000000000000000000000000000000000000000000000000000000000000002000000000000000000000000000000000000000000000000000000000000000200000000000000000000000000000000000000000000000000000000000000060d4b042e246bc590acc4ffb3e35752135480ee0e55441055bdbcc32f166a238b300000000000000000000000000000000000000000000000000000000000000010000000000000000000000000000000000000000000000000000000000000001)"
      ],
      "transaction": {
        "from": "0x3c44cdddb6a900fa2b585dd299e03d12fa4293bc",
        "to": "0xb99cc53e8db7018f557606c2a5b066527bf96b26",
        "gas": "0x9bff4",
        "value": "0x0",
        "input": "0x1fb66f5d0000000000000000000000000000000000000000000000000000000000000020000000000000000000000000000000000000000000000000000000000000000000000000000000000000000070997970c51812dc3a010c7d01b50e0d17dc79c80000000000000000000000000000000000000000000000000000000000000001000000000000000000000000000000000000000000000000000000000000008000000000000000000000000000000000000000000000000000000000000000c0000000000000000000000000000000000000000000000000000000000000002000000000000000000000000000000000000000000000000000000000000000200000000000000000000000000000000000000000000000000000000000000060d4b042e246bc590acc4ffb3e35752135480ee0e55441055bdbcc32f166a238b300000000000000000000000000000000000000000000000000000000000000010000000000000000000000000000000000000000000000000000000000000001",
        "nonce": "0x41c",
        "chainId": "0x7a6a"
      },
      "additionalContracts": [],
      "isFixedGasLimit": false
    }
  ],
  "receipts": [
    {
      "status": "0x1",
      "cumulativeGasUsed": "0x6aaa3",
      "logs": [
        {
          "address": "0xb99cc53e8db7018f557606c2a5b066527bf96b26",
          "topics": [
            "0x33add0b01e02278be5459fbfa3274aee699ec47f4ee7236b59e7a2c8b5000c26",
            "0x0000000000000000000000003c44cdddb6a900fa2b585dd299e03d12fa4293bc",
            "0x0d135617fb0aa7c64177e512ac080124d1fa7cb632f16380c435d3fdd72e7d6b",
            "0x00000000000000000000000070997970c51812dc3a010c7d01b50e0d17dc79c8"
          ],
          "data": "0x00000000000000000000000000000000000000000000000000000000000000010000000000000000000000000000000000000000000000000000000068ff1f33000000000000000000000000000000000000000000000000000000000000000000000000000000000000000000000000000000000000000000000000000000000000000000000000000000000000000000000000000000000000000068ff27ed00000000000000000000000000000000000000000000000000000000000000c000000000000000000000000000000000000000000000000000000000000000c0000000000000000000000000000000000000000000000000000000000000002000000000000000000000000000000000000000000000000000000000000000200000000000000000000000000000000000000000000000000000000000000060d4b042e246bc590acc4ffb3e35752135480ee0e55441055bdbcc32f166a238b300000000000000000000000000000000000000000000000000000000000000010000000000000000000000000000000000000000000000000000000000000001",
          "blockHash": "0x8f3e3fd8b5755b20afb71c670ae1eacb2f086bdd3f92a22fef50d680369eebb0",
          "blockNumber": "0x1e84ab3",
          "blockTimestamp": "0x68ff26c1",
          "transactionHash": "0xa293b6821b644481783bf16ac069cb91033d9cbf960db54a6d4b806f471a6cd6",
          "transactionIndex": "0x0",
          "logIndex": "0x0",
          "removed": false
        }
      ],
      "logsBloom": "0x00000800000000000002000010000000000000000000000000000000000000000000000000000000000000000000010020000000000000000000000000100000000000000000000000000000000000040000000000000000000000000000000000000900000000000000000000000000000800000000000000000000000000000000000000000000000000000000000001000000000000000000000000000000000000000000200000000004000000000000000000008000000000000000000000000000000000000000000000000000000000000000000000000000000000000000000000000000000000000000000001000000000000000000000000000000",
      "type": "0x2",
      "transactionHash": "0xa293b6821b644481783bf16ac069cb91033d9cbf960db54a6d4b806f471a6cd6",
      "transactionIndex": "0x0",
      "blockHash": "0x8f3e3fd8b5755b20afb71c670ae1eacb2f086bdd3f92a22fef50d680369eebb0",
      "blockNumber": "0x1e84ab3",
      "gasUsed": "0x6aaa3",
      "effectiveGasPrice": "0x1dcd6500",
      "blobGasPrice": "0x1",
      "from": "0x3c44cdddb6a900fa2b585dd299e03d12fa4293bc",
      "to": "0xb99cc53e8db7018f557606c2a5b066527bf96b26",
      "contractAddress": null
    }
  ],
  "libraries": [],
  "pending": [],
  "returns": {},
  "timestamp": 1765808558,
  "chain": 31338,
  "commit": "d92619a"
}