{
  "transactions": [
    {
      "hash": "0xbed3f5564c7bde21c30e40079379ed18d586d13a858b3f809427c8395f00b409",
      "transactionType": "CALL",
      "contractName": null,
      "contractAddress": "0xb99cc53e8db7018f557606c2a5b066527bf96b26",
      "function": "createTask((address,(address,uint32),bytes))",
      "arguments": [
        "(0x0000000000000000000000000000000000000000, (0x70997970C51812dc3A010C7d01b50e0d17dc79C8, 1), 0x000000000000000000000000000000000000000000000000000000000000002000000000000000000000000000000000000000000000000000000000000000200000000000000000000000000000000000000000000000000000000000000060b6497ef5ce39aa53ca0c7ac9a8bdddf5a137da1c3180a5b530523008d615fb2a00000000000000000000000000000000000000000000000000000000000000030000000000000000000000000000000000000000000000000000000000000001)"
      ],
      "transaction": {
        "from": "0x3c44cdddb6a900fa2b585dd299e03d12fa4293bc",
        "to": "0xb99cc53e8db7018f557606c2a5b066527bf96b26",
        "gas": "0x9bff4",
        "value": "0x0",
        "input": "0x1fb66f5d0000000000000000000000000000000000000000000000000000000000000020000000000000000000000000000000000000000000000000000000000000000000000000000000000000000070997970c51812dc3a010c7d01b50e0d17dc79c80000000000000000000000000000000000000000000000000000000000000001000000000000000000000000000000000000000000000000000000000000008000000000000000000000000000000000000000000000000000000000000000c0000000000000000000000000000000000000000000000000000000000000002000000000000000000000000000000000000000000000000000000000000000200000000000000000000000000000000000000000000000000000000000000060b6497ef5ce39aa53ca0c7ac9a8bdddf5a137da1c3180a5b530523008d615fb2a00000000000000000000000000000000000000000000000000000000000000030000000000000000000000000000000000000000000000000000000000000001",
        "nonce": "0x428",
        "chainId": "0x7a6a"
      },
      "additionalContracts": [],
      "isFixedGasLimit": false
    }
  ],
  "receipts": [
    {
      "status": "0x1",
      "cumulativeGasUsed": "0x6aaa3",
      "logs": [
        {
          "address": "0xb99cc53e8db7018f557606c2a5b066527bf96b26",
          "topics": [
            "0x33add0b01e02278be5459fbfa3274aee699ec47f4ee7236b59e7a2c8b5000c26",
            "0x0000000000000000000000003c44cdddb6a900fa2b585dd299e03d12fa4293bc",
            "0xde440bfa0ac1aa4abe61d8aee238d0192e6ff16c6424c788f2539a9ef0ad7a36",
            "0x00000000000000000000000070997970c51812dc3a010c7d01b50e0d17dc79c8"
          ],
          "data": "0x00000000000000000000000000000000000000000000000000000000000000010000000000000000000000000000000000000000000000000000000068ff1f33000000000000000000000000000000000000000000000000000000000000000000000000000000000000000000000000000000000000000000000000000000000000000000000000000000000000000000000000000000000000000068ff298500000000000000000000000000000000000000000000000000000000000000c000000000000000000000000000000000000000000000000000000000000000c0000000000000000000000000000000000000000000000000000000000000002000000000000000000000000000000000000000000000000000000000000000200000000000000000000000000000000000000000000000000000000000000060b6497ef5ce39aa53ca0c7ac9a8bdddf5a137da1c3180a5b530523008d615fb2a00000000000000000000000000000000000000000000000000000000000000030000000000000000000000000000000000000000000000000000000000000001",
          "blockHash": "0x3e7a0665d80c16d0e593ac76bc98cc132bf7c5ed7a6c4fbcbe78969a0da02d55",
          "blockNumber": "0x1e84b3b",
          "blockTimestamp": "0x68ff2859",
          "transactionHash": "0xbed3f5564c7bde21c30e40079379ed18d586d13a858b3f809427c8395f00b409",
          "transactionIndex": "0x0",
          "logIndex": "0x0",
          "removed": false
        }
      ],
      "logsBloom": "0x04000800000000000002000000000000000000000000000000000000000000000000000000000000000000000000000020000000000000000000000000100000000000000000000000000000000000040000000000000000000000000000000000000900000000010000000000000000000800000000000000000000000000000000000000000000000000000000000000000000000000000000000000000000000000000000200000000004000000000000000000008000000000000000000000000000000000010000000000000000000000000000000000000000000000000000000000000000000000000000000001000000000000000000000000000000",
      "type": "0x2",
      "transactionHash": "0xbed3f5564c7bde21c30e40079379ed18d586d13a858b3f809427c8395f00b409",
      "transactionIndex": "0x0",
      "blockHash": "0x3e7a0665d80c16d0e593ac76bc98cc132bf7c5ed7a6c4fbcbe78969a0da02d55",
      "blockNumber": "0x1e84b3b",
      "gasUsed": "0x6aaa3",
      "effectiveGasPrice": "0x342770c0",
      "blobGasPrice": "0x1",
      "from": "0x3c44cdddb6a900fa2b585dd299e03d12fa4293bc",
      "to": "0xb99cc53e8db7018f557606c2a5b066527bf96b26",
      "contractAddress": null
    }
  ],
  "libraries": [],
  "pending": [],
  "returns": {},
  "timestamp": 1765808965,
  "chain": 31338,
  "commit": "d92619a"
}